:020000040800F2
:10000000504D0020F5010008F107000861050008C7
:10001000ED070008AB0400086118000800000000AC
:100020000000000000000000000000005D0100086A
:10003000B704000800000000A10100084D110008ED
:10004000AF040008B10400085117000800000000C8
:1000500000000000B5040008391500083D1500082F
:10006000F50D0008000000006505000857090008AC
:1000700065180008000000002F1400083114000863
:1000800081140008A704000800000000B304000861
:10009000F90D000800000000000000000000000052
:1000A000000000000000000000000000A90400089B
:1000B0000D0500080F0500081105000813050008CC
:1000C00000F002F800F03AF80AA090E8000C824430
:1000D0008344AAF10107DA4501D100F02FF8AFF20D
:1000E000090EBAE80F0013F0010F18BFFB1A43F016
:1000F00001031847844E0000A44E0000103A24BFAC
:1001000078C878C1FAD8520724BF30C830C144BF7C
:1001100004680C60704700000023002400250026BE
:10012000103A28BF78C1FBD8520728BF30C148BF5A
:100130000B6070471FB51FBD10B510BD00F07EF9F4
:100140001146FFF7F7FF01F051FF00F09CF903B4EF
:10015000FFF7F2FF03BC00F09FF90000224B196883
:100160000868B0E8F00F80F30988BFF36F8F4FF095
:10017000000080F311884EF00D0E70470000000063
:1001800006480068006880F3088862B661B6BFF36D
:100190004F8FBFF36F8F00DF00BF00BF08ED00E09F
:1001A000EFF30980BFF36F8F0F4B1A6820E9F00F50
:1001B000106008B54FF0BF0080F31188BFF34F8F78
:1001C000BFF36F8F03F0D2FB4FF0000080F3118874
:1001D000BDE8084019680868B0E8F00F80F30988A6
:1001E000BFF36F8F704700BF88000020EFF30580DA
:1001F000704700000948804709480047FEE7FEE7CE
:10020000FEE7FEE7FEE7FEE7FEE7FEE7FEE7FEE7C6
:1002100004480549054A064B7047000011120008C2
:10022000C100000850470020504D002050490020D8
:100230005049002053EA020C00F069802DE9F04B90
:100240004FF00006002B1FBFB3FA83F503FA05F445
:1002500024FA05F65E4012BF1643B2FA82F502FA9E
:1002600005F4C5F120051EBF22FA05FC44EA0C0482
:10027000203556EA044C4FEA144418BF641C4FF072
:1002800000084FF00009904271EB030C39D30029AC
:1002900019BFB1FA81F701FA07F6B0FA80F700FA50
:1002A00007F6C7F120071EBF20FA07FC46EA0C0636
:1002B0002037B6FBF4FCA7EB0507103F07F01F0B38
:1002C000CBF120060CFA0BFB2CFA06F644BFB34622
:1002D0000026202FA4BF5E464FF0000B5BEA060C01
:1002E00008BF4FF0010B19EB0B09ABFB027C48EB8D
:1002F0000608C01B06FB02CC0BFB03CC71EB0C0108
:10030000C1E70B46024641464846BDE8F08B13B5AF
:100310004FF000004FF00001AFF30080BDE81C403B
:100320007047032A40F2308010F0030C00F0158073
:1003300011F8013BBCF1020F624498BF11F801CBE8
:1003400000F8013B38BF11F8013BA2F1040298BF4D
:1003500000F801CB38BF00F8013B11F0030300F0B7
:100360003380083AC0F0088051F8043B083A51F84D
:1003700004CBA0E80810F5E7121D5CBF51F8043B60
:1003800040F8043BAFF30080D20724BF11F8013BD3
:1003900011F801CB48BF11F8012B24BF00F8013B35
:1003A00000F801CB48BF00F8012B70477047704739
:1003B000704710B500F03AF8006810BD10B504465B
:1003C00000F034F8046010BD10B5203AC0F00B8086
:1003D000B1E81850203AA0E81850B1E81850A0E849
:1003E0001850BFF4F5AF5FEA027C24BFB1E81850A3
:1003F000A0E8185044BF18C918C0BDE810405FEA13
:10040000827C24BF51F8043B40F8043B08BF70478E
:10041000D20728BF31F8023B48BF11F8012B28BF93
:1004200020F8023B48BF00F8012B70470048704796
:10043000EC46002000487047EC4600207546FFF768
:10044000F9FFAE4605006946534620F00700854691
:1004500018B020B5FFF7DCFEBDE820404FF00006E5
:100460004FF000074FF000084FF0000B21F007019C
:10047000AC46ACE8C009ACE8C009ACE8C009ACE8DF
:10048000C0098D46704710B50446AFF30080204682
:10049000BDE81040FFF75BBE01491820ABBEFEE788
:1004A0002600020070477047704700BFFEE77047A4
:1004B000704770477047704710B50121202000F049
:1004C0004FFC0121080200F04BFC0121080500F05F
:1004D00047FC0A480A4908604FF00060091F08609D
:1004E0004817084908604FF0E021C1F8800106492B
:1004F0004862C86100F038F810BD00000005FA0538
:100500000CED00E080E200E00080024070477047A0
:1005100070477047004870472C0000200048704723
:100520003400002000487047380000200048704721
:10053000B0010020014621B1012905D0022909D1CD
:1005400005E006488069704704480069FBE70348F6
:100550008068F8E701480069F5E70000B001002075
:1005600000BFFEE77047000010B50121114800F000
:10057000F7FB114800F0E1F90F49104800F039F994
:100580000D490F4800F035F90B490E4800F031F9DC
:1005900009490D4800F02DF907490C4800F029F9E8
:1005A00005490B4800F025F90021024800F0D8FB6E
:1005B00010BD00000000E023FC00002000800A4085
:1005C00000000B4000800B4000000C4000800C40FD
:1005D00000800E4008B50020264908804FF00072C8
:1005E0000221254800F0BAFC4FF000720421224895
:1005F00000F0B4FC4FF080728021204800F0AEFC87
:1006000000201F4908801F4800231A4696210090A9
:100610001DA004F0C3F81E4908601A4800231A46BA
:10062000962100901BA004F0B9F81C4908601548F9
:1006300000231A469621009019A004F0AFF81A4939
:100640000860012000F0ACFC022000F0A9FC0420AE
:1006500000F0A6FC0E48006840B11048006828B1C0
:100660001148006810B10120024908800148008843
:1006700008BD00001800002000800C4000000C4065
:100680001A00002095100008546D7231000000001F
:100690001C000020546D7232000000002000002079
:1006A000546D7233000000002400002010B5044691
:1006B000012C04D0022C0ED0042C24D117E00221EE
:1006C000124800F036F9124800884FF6FE710840D3
:1006D0000F49088018E004210C4800F02AF90C4862
:1006E00000884FF6FD710840094908800CE0802120
:1006F000084800F01AF9064800884FF6FB710840D8
:100700000349088000E000BF00BF10BD00800C401E
:100710001A00002000000C4010B50446012C04D043
:10072000022C0DD0042C21D115E00221114800F03B
:10073000FCF81148008840F001000F49088016E0DD
:1007400004210C4800F0F1F80B48008840F002004A
:10075000094908800BE08021084800F0EAF80648C3
:10076000008840F004000449088000E000BF00BF9A
:1007700010BD000000800C401A00002000000C405A
:1007800070B504462546012D04D0022D0FD0042D4E
:1007900027D119E01448008800F0010018B10120A9
:1007A000FFF784FF02E00120FFF7B6FF1AE00E48D2
:1007B000008800F0020018B10220FFF777FF02E086
:1007C0000220FFF7A9FF0DE00748008800F00400B1
:1007D00018B10420FFF76AFF02E00420FFF79CFF36
:1007E00000E000BF00BF70BD1A00002000BFFEE7A0
:1007F00070472DE9FE4F44688568C6680769D0F8E0
:1008000014C0D0F81880D0F81C90002201234FF0BB
:10081000030ACDF804A04FF0011ACDF800A0B1F8FA
:1008200000A0CDF808A06CE0DDF808A00AF0010AED
:10083000BAF1000F51D024EA030A91F802B00BFA82
:1008400002FB4AEA0B0491F808A04FEA420B0AFAAD
:100850000BFADDF804B025EA0B0B4AEA0B0526EA91
:10086000030A91F80AB00BFA02FB4AEA0B06DDF81C
:1008700000A027EA0A0A91F803B002F1100E0BFA61
:100880000EFB4AEA0B0A91F804B00BFA02FB4AEAA3
:100890000B07DDF800B02CEA0B0A91F805B00BFA53
:1008A0000EFB4AEA0B0A91F806B00BFA02FB4AEA81
:1008B0000B0C91F809A04FEA420B0AFA0BFADDF88B
:1008C00004B028EA0B0B4AEA0B0829EA030A91F85C
:1008D00007B00BFA02FB4AEA0B095B00DDF804A043
:1008E0004FEA8A0ACDF804A0DDF800A04FEA4A0AD0
:1008F000CDF800A0521CDDF808A04FEA5A0ACDF846
:1009000008A0DDF808A0BAF1000F8DD14460856021
:10091000C6600761C0F814C0C0F81880C0F81C9009
:10092000BDE8FE8F01460868704702688A4302608E
:10093000704702680A43026070474FF6FF710180FA
:1009400000218170C170017141718171C1710172A9
:10095000417281727047704701490860704700001A
:100960008800404210B502460C4BD86820F00300C6
:100970001043D860586820F4706040EA0120586045
:10098000074B1B6843B10123054C241D2360002342
:10099000034C883CC4F88C3010BD000000000240BD
:1009A00088004042014908607047000088014042C9
:1009B0000146044AD06820F0F00040EA0110D060FF
:1009C00070470000000002400146034AD06820F44E
:1009D00040700843D06070470000024000B500F04E
:1009E000CFF90121C80600F0BBF90648C06B40F4FE
:1009F00081000449C8630846C06B00F48100C863E5
:100A000000BD000000800D402DE9FC4F0146DFF8DD
:100A100064B2DBF80CB00BF0020BBBF1000F01D09D
:100A2000954B00E0944BDFF84CB2DBF80CB00BF0C8
:100A3000010BBBF1000F00D05B081C46DFF834B29D
:100A4000DBF80CB00BF0040BBBF1000F0DD0DFF89E
:100A500024B2DBF804B0CBF3032B0BF1010BCDF880
:100A600000B0DDF800B004FB0BF4DFF808B2DBF8EF
:100A70000CB0CBF3012BBBF1000F06D0BBF1010F83
:100A800008D0BBF1020F28D122E0DFF8ECB1C1F8A9
:100A900000B027E0DFF8DCB1DBF80CB04FF0080E57
:100AA0000EEA1B1BBBF1000F01D1A0460DE0DFF8E1
:100AB000C4B1DBF80CB0CBF3021B0BF1010B4FF010
:100AC000010E0EFA0BFEB4FBFEF8C1F8008009E03F
:100AD0004FF4004BC1F800B004E049F6404BC1F8B8
:100AE00000B000BF00BFDFF88CB1DBF810B00BF036
:100AF000020BBBF1000F01D05F4D00E05E4DDFF84F
:100B000074B1DBF810B00BF0010BBBF1000F00D09B
:100B10006D082F46DFF85CB1DBF810B00BF0040B6A
:100B2000BBF1000F0DD0DFF84CB1DBF804B0CBF314
:100B3000031B0BF1010BCDF800B0DDF800B007FB93
:100B40000BF7B946DFF82CB1DBF810B00BF0100B47
:100B5000BBF1000F01D04FEA5909C1F80490DFF84A
:100B600014B1DBF818B04FEA1B1000F0080BBBF112
:100B7000000F02D1DFF800C10BE000F0070B0BF112
:100B8000010B4FF0010E0EFA0BF0DFF8ECB0BBFBDF
:100B9000F0FCC1F80CC0DFF8DCB0DBF8180000F0A6
:100BA000080BBBF1000F04D1DFF8CCB0CDF804B0D6
:100BB0000DE000F0070B0BF1010B4FF0010E0EFAE8
:100BC0000BF0DFF8B4B0BBFBF0FBCDF804B0DDF800
:100BD00004B0C1F810B0DFF89CB0DBF814B00BF033
:100BE000030BBBF1000F06D0BBF1010F05D0BBF129
:100BF000020F06D103E01E4605E02E4603E026461E
:100C000001E03E4600BF00BFDFF868B0DBF814B07B
:100C1000CBF3011BBBF1000F06D0BBF1010F06D0D7
:100C2000BBF1020F08D105E04FF4004206E049F69F
:100C3000404203E0324601E0624600BF00BFDFF8F9
:100C400034B0DBF814B04FEA1B2000F0080BBBF106
:100C5000000F01D1924609E000F0070B0BF1010BE8
:100C60004FF0010E0EFA0BF0B2FBF0FAC1F808A03B
:100C7000BDE8FC8F0000024000127A0010B501466A
:100C800001F0E003202B02D1074B1A6801E0074B6B
:100C9000DA6B01F01F040123A34013400BB10120C4
:100CA00000E0002010BD00000000024000800D4068
:100CB0000D49896821F003010B4A9160012802D097
:100CC00002280ED106E00849896841F00101064A70
:100CD000916007E00449896841F00301024A91608C
:100CE00000E000BF00BF70470000024038B50020A0
:100CF000009000BF2220FFF7C1FF05460098401C6E
:100D000000900098B0F5C06F01D2002DF2D02220E3
:100D1000FFF7B4FF08B1012400E00024204638BDED
:100D20000149086070470000D807B04338B500207B
:100D3000009000BF1720FFF7A1FF05460098401C58
:100D400000900098B0F5C06F01D2002DF2D01720AE
:100D5000FFF794FF08B1012400E00024204638BDCD
:100D600029B1064AD2690243044BDA6104E0034A1E
:100D7000D2698243014BDA617047000000000240F3
:100D800000B50120FFF7CCFFFFF7D0FF0020FFF7F1
:100D90001BFE1648C06800201449C8600846406819
:100DA0000020486008468068002088600846006986
:100DB00000200861084640690020486108468069B3
:100DC000002088610A48C8610846006A002008625D
:100DD0000846406A002048620846806A002088620F
:100DE0000846C06A0020C86200BD00000000024042
:100DF000100000087047000010B50221044800F000
:100E000048F8012803D10221014800F021F810BD63
:100E100000000A4002460B4BD86A0B4B9A4205D1A0
:100E200040F0807020F0FF00084308E0074B9A4232
:100E300005D140F0007020F47F4040EA0120014BD2
:100E4000D8627047000002400000044000000A40E1
:100E5000026A0A430262704721B1426842F002020C
:100E6000426004E042684FF6FD731A4042607047EA
:100E70000021016041600161416141620321016221
:100E800070470246D3680B400BB1012000E0002000
:100E900070470246D3690B400BB1012000E00020EF
:100EA000704710B54B8803618B790C8803EB0423E2
:100EB000CC7923440C7A23444C791A1902604B7A7A
:100EC0000C791A19426010BD0146886880B27047DB
:100ED0008160704700210171072141710021C171BA
:100EE00081710172022141800021018041727047AD
:100EF00070B506460C46154601212846FFF730FF1F
:100F00000748FFF71AFD06490C8000208870087218
:100F100001208872022048723046FFF76AFC70BDDB
:100F2000FC00002010B501210348FFF7FEFC012062
:100F30000249088010BD000000800C4030000020F5
:100F400010B501210348FFF7F4FC00200249088096
:100F500010BD000000800C403000002070B5064637
:100F60000C46154601212846FFF7FAFE0848FFF710
:100F7000E4FC07490C8001208870002008720120E1
:100F80008872022048723046FFF733FC70BD0000C3
:100F9000FC0000200149086188607047B001002012
:100FA00038B50446012C04D0022C12D0042C30D1C8
:100FB0001FE00120FFF7B0FB03F006F905460A2009
:100FC00000232A46012100901348006803F022FC08
:100FD00020E00220FFF76AFB03F0F6F805460A203E
:100FE00000232A46012100900C48006803F012FCFF
:100FF00010E00420FFF75AFB03F0E6F805460A204C
:1010000000232A46012100900548006803F002FCF5
:1010100000E000BF00BF38BD1C0000202000002001
:101020002400002038B504461748006884422AD1BD
:10103000042000F041FC1548008810B1012820D19F
:1010400016E008211248FFF774FC082000F034FC79
:1010500001200E49088003F0B7F8054664200023FC
:101060002A46012100900848006803F0D3FB09E0FC
:1010700000F0E6FD022005490880202000F01CFC5D
:1010800000E000BF00BF38BD500000205600002027
:1010900000000B4010B504460B480068844203D1A1
:1010A0000120FFF76DFB0EE008480068844203D181
:1010B0000220FFF765FB06E005480068844202D184
:1010C0000420FFF75DFB10BD1C0000202000002065
:1010D0002400002070B504460D460C4804750473C6
:1010E00000200A49886442F21070886108618860B3
:1010F0000846456040680968884205D00349087D74
:1011000001F0BCFE01F08CFE70BD0000B0010020BB
:1011100010B50020034908600121024800F016F9CB
:1011200010BD0000008007400348006A20F0010065
:10113000401C014908627047B001002010B5002131
:10114000014800F003F910BD0080074010B500BF52
:10115000BF2080F31188BFF34F8FBFF36F8F00BFA5
:1011600003F038F818B14FF080500449086000BF10
:10117000002080F3118800BF10BD000004ED00E0E6
:1011800030B5204CE46804F00204022C01D11E4862
:1011900000E01D481B4CE46804F0010404B1400861
:1011A0000146184CE46804F00404042C05D1154CE5
:1011B0006468C4F30324631C5943124CE468C4F309
:1011C000012424B1012C06D0022C13D10DE00E4CC9
:1011D0000E4D2C6013E00B4CE468C4F30314641C44
:1011E000B1FBF4F2094C226009E04FF40044074DD2
:1011F0002C6004E049F64044044D2C6000BF00BF61
:1012000030BD00000000024000127A00F80000200B
:1012100000B510200749C8610020C8604860886098
:10122000086148618861086248628862C862FFF7A5
:10123000A7FF00BD000002400246104B586A104B49
:101240009A4205D120F0FF00084340F0807012E080
:101250000C4B9A4206D120F47F4040EA012040F036
:10126000007008E0084B9A4205D120F47F0040EA64
:10127000014040F08060014B58627047000002401E
:1012800000000740008007400000084070B54D880E
:10129000CE8835440E8935444E8935448E8905EB18
:1012A0008615CE8935440E8AAC198D880DB104F5AA
:1012B00080740A8800F1200545F822404D8ACE8AC4
:1012C000AB198D8A05B11B1D00F1600545F8223070
:1012D00070BD70B54D882D018E8805EB8605CE88D2
:1012E00035440E8905EB06354E8905EB86258E893A
:1012F00005EB06230A8800F1300545F822300D8AF7
:10130000CE8905EB06254E8AAC1900F1400545F85B
:10131000224070BD002141808180C18001814181D6
:101320008181C18101824182704700210180418019
:101330008180C180018141818181C181018241829D
:101340008182C1827047CA43426570470A46C168BC
:1013500012B141F0010101E021F00101C1607047CB
:1013600030B50C8804604C8844608C888460CC88DC
:101370000D892C444D892C448D892C44CD896319C9
:10138000C3604C8A0D8A04EB05148D8A2C44CD8AE7
:101390006219026530BD0021018041808180C180D9
:1013A000018141818181C181018241828182C18229
:1013B00070470021C160016041608160016241624B
:1013C0008162C162016341638163C16301664166F9
:1013D0008166C166016141618161C16101674167E7
:1013E0008167C167016441648164C16401654165CD
:1013F0008165C165704710B50246936D546D1C4000
:1014000004EA01030BB9002000E0012010BD10B573
:101410001346826D0BB10A4300E08A43826510BD1A
:1014200010B500F1100404EB81031A6010BD704781
:1014300008B50020009002210E48FFF7DCFF0128CC
:101440000AD102210B48FFF77EFFFFF777FE6946BE
:101450000948006802F059FC00BF009838B14FF00D
:10146000805006490860BFF34F8FBFF36F8F00BFF6
:1014700008BD0000008007402C00002004ED00E0C3
:1014800010B5002401212948FFF7B5FF01284CD1F0
:1014900001212648FFF757FF01F0A4FB002839D0AF
:1014A0000120FFF76DF922480246D2E90412C0E993
:1014B0000612007D012805D11D480068401C1C490A
:1014C000086004E01A480068401E1949086018487E
:1014D000406817490968884201D1012000E00020D6
:1014E000134991F8201001F00101084370B1104830
:1014F000006A20F001000E49086200210B48FFF746
:1015000025FF01200A4981F8240003E00121074852
:10151000FFF71CFF00BF3CB14FF080500549086049
:10152000BFF34F8FBFF36F8F00BF10BD00000840A7
:10153000B001002004ED00E0704700001CB5002061
:1015400001901021244800F085F8012821D11021B4
:10155000214800F067F8204800F0E8F8C0B2009099
:101560001E480088012814D1002301AA69461C489E
:10157000006802F085FBFFF7CBFD00BF019838B192
:101580004FF0805017490860BFF34F8FBFF36F8F44
:1015900000BF2021104800F05DF8012803D1202170
:1015A0000D4800F03FF84FF480610B4800F052F80E
:1015B000012803D18102084800F034F800BF0198E7
:1015C00038B14FF0805007490860BFF34F8FBFF329
:1015D0006F8F00BF1CBD0000008003403000002062
:1015E0003400002004ED00E002460B4B986A0B4BE0
:1015F0009A4205D140F0807020F0FF00084308E0D7
:10160000074B9A4205D140F0007020F47F4040EA39
:101610000120014B98627047000002400000034027
:1016200000800340426C0A434264704721B1026B60
:1016300042F00102026304E0026B4FF6FE731A40AF
:1016400002637047024693690B400BB1012000E032
:10165000002070470246136C0B400BB1012000E0E4
:10166000002070471AB1836B0B43836302E0836BE6
:101670008B438363704700002DE9F04F87B0044629
:101680000D4601A8FFF7C0F9019F2548866A254845
:10169000844206D106F0070101208840B7FBF0F72D
:1016A00008E02148844205D1C6F302210120884088
:1016B000B7FBF0F728688008B7FBF0F94FEA9918F4
:1016C00009F03F0AB8000AEB8811B0FBF1F0069070
:1016D00029680698401AC001B0FBF1FBBBF1020F6C
:1016E00002DC1BF1020F03DA002007B0BDE8F08F27
:1016F000C4F82480C4F828A0E66AA888E9880843CA
:1017000029890843698908430643E662266B4FF638
:1017100080708643A889064326630120E5E7000020
:1017200000000240000003400080034001460868BA
:1017300080B27047016070474FF41651016000217C
:101740008180C180018141814FF440718181704766
:101750007047000010B50F48FFF7EFF80121480669
:10176000FFF7FEFA4FF630700A4908800A48FFF783
:1017700040F8012007490880887000200872012085
:101780008872022048720448FFF733F8FFF7CAFB5B
:1017900010BD00001801002000800C4010B5012190
:1017A0004807FFF7DDFA0F48FFF7C7F800200D499B
:1017B000C870087148718871C87103200872487236
:1017C0000120887200208870012008800648FFF7F9
:1017D00010F8012003498870022008800248FFF7B2
:1017E00008F810BD1801002000800E4010B501213E
:1017F000C803FFF7B5FA1848FFF7DBFD07211648C5
:10180000FFF71AFD1548FFF7C6FD1320134948805E
:101810000A2088800020C880088148818881C8818A
:10182000088248828882C8820B48FFF799FD0F2002
:10183000012181404209920002F1E022C2F8001128
:1018400000BF012202210448FFF7E1FD0021024808
:10185000FFF77CFD10BD0000008007402401002040
:1018600000BFFEE77047000007490968491C064AA7
:101870001160064909680902044A116011460968A5
:101880000143116070470000580000205C000020F8
:1018900007490968491C064A116006490968090296
:1018A000044A116011460968014311607047000045
:1018B0004000002044000020024909680143014A19
:1018C00011607047480000200248006901498860A3
:1018D00070470000B001002010B504E00548FFF794
:1018E000F3FA044600BF04210248FFF7CAFA0128B0
:1018F000F4D010BD00000A400148806A7047000023
:10190000B00100200148C06A70470000B00100200B
:1019100007490968090E017005490968090C4170F9
:1019200003490988090A817001490978C170704723
:10193000400000200148406C70470000B0010020CA
:1019400070B51248FEF7EEFF0446E043C4B21048FB
:10195000FEF7E8FF05464FF4F06020EA050505F4C0
:10196000806008B144F4807405F4007008B144F458
:10197000007405F4807008B144F4806405F08000C0
:1019800008B144F40064A0B270BD000000800A40B9
:1019900000000B4007490968090E017005490968F4
:1019A000090C417003490988090A817001490978C5
:1019B000C17070474400002007490968090E017092
:1019C00005490968090C417003490988090A8170B1
:1019D00001490978C1707047B001002010B5054871
:1019E000FEF7A0FF00F0C800034908600846006841
:1019F00010BD000000800C408400002070B504463B
:101A0000002510480068D0B1691E0E48006802F039
:101A10003BFA012813D1D02001F07CF9002001F01D
:101A200079F9002001F076F9204601F089F80546A1
:101A300000231A4619460348006802F095F8284624
:101A400070BD00006000002007490968090E0170A0
:101A500005490968090C417003490988090A817020
:101A600001490978C17070477C0000200749096866
:101A7000090E017005490968090C4170034909887C
:101A8000090A817001490978C17070474800002037
:101A90000148806B70470000B00100200148406B96
:101AA00070470000B001002070B5044600220821F4
:101AB000322001F0E2FF134908600020124908605B
:101AC000124840FA04F5012001F032F91048806A0A
:101AD0000F49086308468563456301210175406B22
:101AE0000B49086101210A480173406B084988606D
:101AF0000846006A20F001000862012081F82400F5
:101B000070BD0000780000207C00002040420F00E3
:101B1000B001002010B5FEF761FF0120FFF700F9CA
:101B2000FFF704F901281DD1FFF7C2F8FFF7DEF82F
:101B3000012819D109210220FEF714FF0120FEF728
:101B40000BFFFFF7D3F801280AD10020FEF730FF82
:101B50000120FEF727FF4FF48070FEF735FF03E00A
:101B6000002010BD0020FCE70120FAE710B54FF47B
:101B70000012FF211048FFF7BBF94FF480024FF429
:101B8000F0610E48FFF7B4F94FF0007208210C48DD
:101B9000FFF7AEF94FF0007280210948FFF7A8F96E
:101BA0004FF0007240210648FFF7A2F900200549D6
:101BB00008600549086010BD00800A4000000B4025
:101BC00000800C40800000208400002038B50446CE
:101BD0000D460120FFF770FE00F062F800F08EF96C
:101BE00000200D4908600D4908600D4805700D483A
:101BF000047000200C4908800C4800231A4632214A
:101C000000900BA002F0CAFD0C49086000F0B2FF82
:101C10000220FFF751FE38BD4000002044000020A4
:101C20004C0000204D000020560000202510000828
:101C30005273744C363437300000000050000020DE
:101C40001CB5144800780190012201A9092001F077
:101C5000BDFE012201A90A2001F0B8FE012201A95E
:101C60000B2001F0B3FE012201A90C2001F0AEFE11
:101C700009480078009001226946162001F0A6FE6E
:101C800001200649087001F0F9F81020FFF714FE52
:101C90001CBD00004C0000204D000020540000201E
:101CA00010B501218805FFF75BF82148FEF745FED6
:101CB00000201F49C870087148718871C871087286
:101CC0000320487201208872887008200880194813
:101CD000FEF78FFD01218805FFF742F80120144926
:101CE000C87000208870042008801248FEF781FD2B
:101CF00001218805FFF734F800200D49C87088706D
:101D0000012008800B48FEF774FD01218805FFF7CC
:101D100027F800200649C87088700220088005480E
:101D2000FEF767FD08210348FEF703FE10BD000023
:101D30005201002000000B4010B501218805FFF77B
:101D40000FF80848FEF7F9FD0320064908724872AB
:101D5000012088728870202008800348FEF749FD22
:101D600010BD00005E01002000000B40014908602A
:101D7000704700007400002010B500F003F800F078
:101D800087F810BD10B50121C805FEF7E9FF1C4812
:101D9000FEF7D3FD03201A490872487201208872A9
:101DA000887008801748FEF724FD01210806FEF719
:101DB000D7FF022012490872012088704020088055
:101DC0001148FEF716FD01210806FEF7C9FF0220A3
:101DD0000B49087201208870202008800A48FEF70D
:101DE00008FD0121C805FEF7BBFF03200449087266
:101DF00000208870042008800248FEF7FAFC10BD1D
:101E00004601002000800B4000000C401CB5FFF78D
:101E1000B3FF03220021012001F02FFE17490860C3
:101E20000846006830B100231A4619461348006876
:101E300001F09AFE11480068E0B100200521034638
:101E40008222CDE900100EA10F4802F07DF9012891
:101E500002D00120FFF708FD00220121322001F00D
:101E60000CFE0A4908600846006830B90320FFF7F5
:101E7000FBFC02E00220FFF7F7FC1CBD6000002025
:101E800053656E6453706900614700086400002068
:101E900010B501210805FEF763FF1648FEF7E8FFBD
:101EA00001211448FEF7B6FF1348FFF713F802208C
:101EB00011490880052048800020087107204871DA
:101EC000802088714020C87100200872022048726A
:101ED0000848FEF7E6FF01210648FEF7BDFF142083
:101EE000012181404209920002F1E022C2F8001172
:101EF00000BF10BD00000A403C01002010B50020CA
:101F000035490880FFF718FF01210804FEF728FF74
:101F10003248FFF74EFA01213048FFF78DF930487B
:101F2000FFF739FA27202E4948804FF6FF70888046
:101F30000020C88008200881002048818881C8814D
:101F4000088248828882C8822448FFF709FA254817
:101F5000FFF7EBF90020234948804FF4C060488127
:101F600002200880002088821C48FFF78FF9012298
:101F700002211A48FFF754FA1B48FFF7CBF900205B
:101F800019494880022088800120C88000200881EB
:101F90000220488101208881022008800F48FFF735
:101FA00098F91020012181404209920002F1E022BB
:101FB000C2F8001100BF01210848FFF7C4F901224F
:101FC00011460648FFF723FA0120044988610021E1
:101FD0000248FFF7BBF910BD680000200000084070
:101FE0006A01002096010020820100201CB5FFF745
:101FF0000FF9FFF78FFDFEF75FFA012028490880EF
:10200000FEF7E8FA012802D00020254908804FF4A5
:10201000E13001F0D1FF234908600846006810B99B
:1020200000201F490880FEF775FA1F490860FEF777
:1020300075FA1E490860FEF775FA1D490860FFF73A
:10204000E5FE1C210520FFF7C1FD0520FFF72CFD53
:10205000FEF76CFA0446FFF789FEFFF787FD0020C4
:10206000022103464FF48272CDE9001011A11448F9
:1020700002F06AF8012802D00020094908800848C7
:102080000088012801D101F02DFC0120FEF744FB5E
:102090000220FEF741FB0420FEF73EFB00201CBDA2
:1020A0000200002004000020080000200C00002096
:1020B000100000204F626D656E5561727400000063
:1020C0006D2F00082DE9F04105460E4626480768A9
:1020D00026480068001D00F001FF50B92348006841
:1020E00090F82C100120884021490968814320483C
:1020F0000160681CD8B9D6B11E4948681B490968F7
:1021000088601A4982680968CA6018490968091D07
:102110008268516015490968091D8160154A134993
:1021200009684A6111460968491C11601AE07C1966
:102130000E4800684460BC4207D20C480168091D83
:102140000D48006800F0F7FE0CE008480168091D22
:102150000A48006800F0EFFE09480068844201D296
:1021600007480460BDE8F0819C0000208800002042
:10217000A0000020B0020020900000208C00002071
:10218000B800002010B5044601F058FA2F48006846
:10219000401C2E4908602E48006840B92C48046055
:1021A0000846006801280DD100F0CCF90AE0294862
:1021B000006838B926480068C06AE16A884201D8D8
:1021C0002348046024480068401C2349086094F8B0
:1021D0002C10012088402149096808431F490860E4
:1021E000E16A01EB81011E4A02EB81014868A060AF
:1021F0008268E260211D826851608160E16A01EBC2
:102200008101174A02EB81026261E16A01EB8101FF
:10221000134A52F82110491CE26A02EB8202104B69
:1022200043F8221001F01CFA0A48006868B1084817
:102230000068C06AE16A884207D24FF080500949BD
:102240000860BFF34F8FBFF36F8F10BD9800002061
:1022500088000020A4000020B4000020A00000207E
:10226000FC01002004ED00E010B501F0E7F90C4896
:10227000006890B90B4800F04EFE0B4800F04BFE92
:1022800008480A49086008480949086000220C21EA
:102290000A2001F0F2FB0249086001F0E1F910BDEB
:1022A000D0000020C4020020D8020020C800002076
:1022B000CC00002010B516E001F0C0F90C48C06851
:1022C000C468201D00F00AFE0A480068401E094943
:1022D000086009480068401E0749086001F0C0F91D
:1022E000204600F05FF8044800680028E4D110BDE3
:1022F0009C020020980000209400002070B5044645
:102300000D46206C70B1216CE0680144E160D4E9B5
:102310000210884201D32168E1602846226CE168FE
:10232000FDF7FFFF70BD2DE9F04104460F4615464D
:102330004FF00008A66B206C48B9206800282CD10B
:10234000A06802F00FF880460020A06025E07DB96B
:102350003946226C6068FDF7E4FF216C6068084430
:102360006060D4E90101884217D32068606014E0FE
:102370003946226CE068FDF7D4FF216CE068411A11
:10238000E1602168E068884203D2216CA068411AAC
:10239000E160022D01D106B1761E701CA06340469B
:1023A000BDE8F08110B50446206B01F069F92046C4
:1023B00001F066F910BD01464A6A22B10A6B126843
:1023C000C2F1050000E00020704700000146084A05
:1023D000126812680AB9012200E000220A600A6845
:1023E00022B9034A1268D268106800E000207047E2
:1023F000C80000200A4A22F007000A4A10600022A2
:10240000084B5A6044F2F832074B5A6000221A60B7
:10241000014644F2F8324A601A460A6070470000EA
:10242000F3020020E0000020E800002000BFFFF7DA
:1024300041FF064800680128F9D94FF0805004494F
:102440000860BFF34F8FBFF36F8FF0E7FC010020F0
:1024500004ED00E02DE9F04106460D46174698468A
:10246000069C0DB9246000E02760E6632564012125
:10247000204601F029FBBDE8F0812DE9FF5F804691
:102480000E469146DDE90E7A109CA9F10100216B00
:1024900001EB800B2BF0070B86B1002507E0715D87
:1024A00004F134004155705D00B902E06D1C102D3F
:1024B000F5D300BF00214320015502E0002084F83D
:1024C0003400052F00D30427E76267640020A0646E
:1024D000201D00F02DFD04F1180000F029FD2461FD
:1024E000C7F10500A06164620020E06484F8500038
:1024F00041465846039A00F0ADFA2060BAF1000F49
:1025000001D0CAF80040BDE8FF9F2DE9F04705461D
:102510000E4617469846DDE90894FFF7A5FE2560AC
:10252000A661C4F81C80C4F82090201D00F000FDB6
:102530002FB194F8240040F0040084F82400BDE892
:10254000F087000010B5002407E004EB84010F4A77
:1025500002EB810000F0DFFC641C052CF5D30C4875
:1025600000F0D9FC0B4800F0D6FC0B4800F0D3FC7F
:102570000A4800F0D0FC0A4800F0CDFC04480949A4
:10258000086004480849086010BD0000FC010020F4
:102590006002002074020020880200209C020020BB
:1025A000B00200208C000020900000202DE9F041B6
:1025B00004460D4616461F464FF00008656024612C
:1025C000B5420CD8F01BA169884202D34FF0010834
:1025D00011E0211D0948006800F0ADFC0BE0BE428F
:1025E00004D2BD4202D34FF0010804E0211D04488B
:1025F000006800F0A0FC4046BDE8F081CC0000205F
:10260000C800002070B5054601F018F8A86B08B99D
:10261000012400E0002401F023F8204670BD70B5CD
:10262000054601F00BF8A86BE96B884201D1012443
:1026300000E0002401F014F8204670BD70B5054696
:102640000E460E480068C068C468201D00F046FCB5
:1026500094F8240000F0040028B1324629462046B0
:1026600000F0C4F805E094F8240000F0FE0084F8BF
:1026700024002046216A884770BD0000C800002061
:102680007FB56EE0019800286BDB039C606908B998
:10269000012000E0002010B9201D00F01FFC68465A
:1026A00000F0D0F8054601980A2858D2DFE800F07B
:1026B0005705072E364706082F3700BF00BF00BF5B
:1026C00094F8240040F0010084F824000298A269E4
:1026D000811803462A462046FFF768FFA8B194F800
:1026E000240000F0040038B10298A26981182A463B
:1026F000204600F07BF805E094F8240000F0FE008E
:1027000084F824002046216A884729E000BF94F815
:10271000240000F0FE0084F8240021E000BF94F8BB
:10272000240040F0010084F824000298A061A06910
:1027300041192B462A462046FFF738FF10E094F84F
:10274000240000F0020018B9204600F099FF05E0CF
:1027500094F8240000F0FE0084F8240000E000BF9C
:1027600000BF002201A90348006801F00BFB00280C
:1027700088D17FBDD0000020F8B505460C4601F099
:10278000EDF8684600F05EF80646009820BB44B9B4
:10279000B54206D801F036FF31462846FFF74EFF16
:1027A0001CE03CB10E480068006808B9012000E058
:1027B00000200446A91B22460A48006800F08CFF4E
:1027C00001F020FF50B94FF0805007490860BFF377
:1027D0004F8FBFF36F8F01E001F014FFF8BD0000D1
:1027E000CC000020D000002004ED00E070B50446CD
:1027F0000D46164604E0A06905442046216A884734
:10280000A06941192B4632462046FFF7CFFE00282B
:10281000F1D170BD09480068006808B9012000E0E6
:10282000002020B14FF0FF300549086005E0034863
:102830000068C06800680249086070478C0000208A
:10284000B800002070B5044601F0BEFC05460748FC
:102850000068854204D200F00BF80120206001E0FE
:102860000020206001480560284670BDD800002087
:1028700070B508E00D480068C06804684FF0FF318B
:102880002046FFF7DBFE09480068006808B9012010
:1028900000E000200028EDD00448056804480068E6
:1028A000024908600248056070BD0000C8000020B1
:1028B000CC00002000BFBF2080F31188BFF34F8FF2
:1028C000BFF36F8F00BF00BFFEE708B500BF6846CB
:1028D000FFF77CFD044620460099FFF74DFFFFF708
:1028E000CFFEF4E770B5044600F0A8FE94F9455019
:1028F00010E0606A08B9012000E0002038B904F156
:10290000240001F0FBFD18B100F046FF00E003E0F9
:10291000681E45B2002DECDC00BFFF2084F84500A6
:1029200000F09EFE00F08AFE94F9445010E0206909
:1029300008B9012000E0002048B904F1100001F0BE
:10294000DDFD08B100F028FF681E45B200E001E09F
:10295000002DECDC00BFFF2084F8440000F080FE76
:1029600070BD00002DE9F04104464FF0000800F072
:10297000F5FF2C48006820B9FFF73CFD01202949EC
:1029800008609CB104F10800A0420FD9083404F09B
:102990000700C0F108002044A04205D904F0070058
:1029A000C0F10800044402E0002400E00024002CF0
:1029B00032D01D48006884422ED81C4F3846056826
:1029C00001E02F462D686868A04202D228680028DE
:1029D000F7D1174885421FD0386800F108082868E9
:1029E00038606868001B102810D92E196868001B11
:1029F00070606C6071680D4800E0006802685268A1
:102A00008A42FAD302683260066000BF06496868ED
:102A10000968081A0449086001F0F4FD4046BDE861
:102A2000F0810000F4000020F0000020E000002011
:102A3000E80000200648006830B10549096801F146
:102A40004800896C491C016001480068704700001B
:102A500088000020001F4FF080730360001F21F0EA
:102A600001030360001F034B036014380260203829
:102A700070470000B52800082DE9FC5F1649886AF8
:102A800002F083F8804642460B4600204FF080411A
:102A900001F0F6FE064600F09DF9044600220F4BB9
:102AA00002F086F8824602F043F80B49C8620846F5
:102AB000006C096CA0FB0110CDE900100648806A8B
:102AC000440022460023DDE90001FDF7B3FB024983
:102AD0004864BDE8FC9F0000B001002080842E41C6
:102AE00070B504460D4600261448006818B3711EE0
:102AF0001248006801F0C8F901281CD1FEF7ECFE6D
:102B000044F0200000F006F9002000F003F9002056
:102B100000F000F9002000F0FDF80220FDF730FE83
:102B2000284600F00DF8064600231A4619460348C9
:102B3000006801F019F8304670BD00006000002008
:102B400010B5044609E00948FEF7BEF92070641C80
:102B500007480068401C0649086004210348FEF746
:102B600090F90128EFD00248007810BD00000A401B
:102B70003C00002038B508210A48FDF7D6FE01F0D8
:102B800023FB0446642000232246012100900648CE
:102B9000006801F03FFE012802D00120FEF778FE18
:102BA00038BD000000000B405000002010B500248C
:102BB0000B48006888B1611E0948006801F064F99B
:102BC00001280AD1C02000F0A5F800231A461946B2
:102BD0000348006800F0C8FF0124204610BD000033
:102BE0006000002010B51D48006800696FF30F00F9
:102BF000C8B11A4800680069A0F580301749096813
:102C0000086100211648FEF7A1FB4FF6FF7014493A
:102C1000886101211248FEF799FB4FF6FE701049BA
:102C20008860002010BD00210D48FEF78FFB0120B9
:102C30000B49886101210A48FEF788FB07480068B4
:102C4000008A80B2064988600448006803490A681F
:102C5000D2E90212C0E904120120E3E77400002067
:102C60000000084070B504460025FEF769F92146CA
:102C70000A48FEF75FFD00BF80210848FEF7E2FC2E
:102C80000128F9D100BF0548806900F0080000283C
:102C9000F9D10125FEF746F9284670BD00800340B2
:102CA00037B515460E49096800231A460868694673
:102CB00000F05AFF0A49096800231A46086801A96A
:102CC00000F052FF002408E02919054A1268002389
:102CD00010681A4600F048FF641C042CF4DB3EBD6B
:102CE0001000002010B504460020084908600221A9
:102CF0000748FEF7C6F8012805D121460448FEF72B
:102D0000E7F8012010BD0020FCE700003C00002097
:102D100000000A4038B50446009400235A1E694654
:102D20000248006800F020FF38BD00006400002069
:102D300010B5044602488462FFF79EFE10BD0000F5
:102D4000B00100202DE9F04782460D48C0F840A0B0
:102D5000504601F01AFF064632460B46002009494C
:102D600001F08EFD04460022074B01F021FF804652
:102D700001F0DEFE02498863FFF77EFEBDE8F087C2
:102D8000B00100200000F03F80842E412DE9F04783
:102D900082460D48C0F83CA0504601F0F6FE0646BB
:102DA00032460B460020094901F06AFD0446002224
:102DB000074B01F0FDFE804601F0BAFE0249486370
:102DC000FFF75AFEBDE8F087B00100200000F03F99
:102DD00080842E412DE9F04106460F4601F0E6FFC2
:102DE000041E0D4618BF0120284320F00040C0F10A
:102DF0007F6000F1E040C00F0ED0301C18BF0120F2
:102E0000384320F00040C0F17F6000F1E040C00F87
:102E100004BF0120FDF7D2FA20462946BDE8F08123
:102E200010B500210648FEF791FA01200449886197
:102E30000220086001210248FEF788FA10BD000058
:102E40000000084010B5044694B10A4800680461C7
:102E500008480068846000210748FEF777FA0120DF
:102E6000054988610220086001210348FEF76EFAD7
:102E700010BD0000740000200000084070B504463A
:102E800000250D480068A0B1691E0B48006800F0DD
:102E9000FBFF01280DD104F0010141F05800FFF7BC
:102EA00039FF00231A4619460348006800F05CFE0B
:102EB0000125284670BD00006000002010B50021EB
:102EC0000148FEF743FA10BD000008400A0E0270E8
:102ED0000A0C42700A0A8270C170704701460A6982
:102EE000D1E901309860D1E9010358605068884207
:102EF00001D188685060002008611068401E106091
:102F00001068704770B5044600F098FBA56B00F0A0
:102F1000A7FB284670BD00F1080141604FF0FF316A
:102F2000816000F10801C16001610021016070470A
:102F300000210161704710B502460B685C1C0CB99A
:102F4000106907E002F1080000E040684468246866
:102F50009C42FAD944684C604C68A160886041602A
:102F60000A611468641C146010BD000086B0002063
:102F70000490059000BFFE49096808684FF0FF31D2
:102F800000F082FF33E300240CE0FA4909684FF0B7
:102F9000FF32086803A900F0F5FE9DF80C0004A9B3
:102FA0000855641C062CF0DB9DF8100039287CD1F4
:102FB0009DF81100602879D01DDC482877D00DDC01
:102FC000A0F139000F2841D2DFE800F04040404036
:102FD0004040404191AABCCEDDE9FD0050381028A8
:102FE000F1D2DFE800F0EFEEEDECEBEA33E9E833A5
:102FF0003333333333E7742872D014DC652870D050
:1030000008DC61286ED062286DD063286CD06428FB
:103010001CD1C9E1662868D0702867D0712878D0A3
:103020007228F5D116E2832874D008DC752872D096
:10303000802871D0812870D08228E9D176E2842856
:103040006CD085286BD08628E2D1AFE2C0E20220A6
:10305000FDF7A6FF002002909DF8120002A9FFF7DD
:103060003FFD00283BDD0920019002200090C2496D
:10307000096800231A46086801A900F075FDBE49D9
:10308000096800231A460868694600F06DFDBA49D0
:10309000096800231A46086802A900F065FDB649D0
:1030A000096800231A46086802E092E21AE1A4E0E7
:1030B0000DF1090100F058FDAF49096800231A46D7
:1030C00008680DF10A0100F04FFDAB4909680023C3
:1030D0001A4608680DF10B0100F046FD00BF77E2CB
:1030E000D2E171E114E12EE154E17DE189E10220B8
:1030F000FDF756FF9DF8120001220DF1130100F0BB
:1031000065FC0DF1120241219C480078FFF7C8FDD3
:103110005EE290E11AE2D1E1EAE1FCE126E235E289
:103120000220FDF73DFF9DF8120002220DF1130170
:1031300000F04CFC0DF11202422190480078FFF79C
:10314000AFFD45E20220FDF72BFF9DF812000322A0
:103150000DF1130100F03AFC0DF1120243218748F2
:103160000078FFF79DFD33E20220FDF719FF0DF116
:103170001200FEF743FC0DF1120244217F48007853
:10318000FFF78EFD24E29DF81500FFF777FE0DF1A5
:103190001202452179480078FFF782FD18E2FFF717
:1031A00005FD0DF11202462174480078FFF778FD05
:1031B0000EE208E08AE07DE070E063E056E049E07E
:1031C0003EE02FE023E09DF8120000069DF813106A
:1031D00040EA01409DF8141040EA01209DF81510C6
:1031E00040EA01042046FFF72DFE0DF112024721AF
:1031F00062480078FFF754FDEAE1FFF75FFE0DF14A
:10320000120248215D480078FFF74AFDE0E1012005
:10321000FFF734FE0DF11202502158480078FFF7F5
:103220003FFDD5E101220DF11201162000F0CEFB89
:103230000DF11202512151480078FFF731FDC7E12D
:10324000FEF7FEFC0DF1120252214C480078FFF708
:1032500027FDBDE10DF11200FEF79CFB0DF11202FE
:10326000532146480078FFF71BFDB1E10DF1120034
:10327000FEF74EFB0DF11202542140480078FFF793
:103280000FFDA5E10DF11200FEF7F0FB0DF11202AA
:1032900055213A480078FFF703FD99E14FF6FF709A
:1032A000FFF7D0FD0DF11202572134480078FFF7E7
:1032B000F7FC8DE10DF11200FEF77EFB0DF112021D
:1032C00058212E480078FFF7EBFC81E10DF1120048
:1032D000FEF7BAFB0DF112025F2128480078FFF7D4
:1032E000DFFC75E126480468200E8DF81200200CE2
:1032F0008DF81300200A8DF81400E0B28DF8150047
:103300000DF1120260211D480078FFF7C9FC5FE152
:103310009DF8120000069DF8131040EA01409DF848
:10332000141040EA01209DF8151040EA01042146DE
:103330000120FDF7CFFE0DF1120261210F48007848
:10334000FFF7AEFC44E19DF8120000069DF8131053
:1033500040EA01409DF8141040EA01209DF8151044
:1033600040EA010421460020FDF7B4FE0AE0000017
:10337000080000200C0000201000002000000020A9
:1033800000ED00E00DF112026221A7480078FFF77E
:1033900087FC1DE1FDF7C8FE0DF112026321A24872
:1033A0000078FFF77DFC13E1FEF7CAFA04462146D8
:1033B0000DF11200FFF78AFD0DF1120264219A4807
:1033C0000078FFF76DFC03E1FEF708FB0446214699
:1033D0000DF11200FFF77AFD0DF1120265219248FE
:1033E0000078FFF75DFCF3E090490DF11200FFF764
:1033F0006DFD0DF1120266218B480078FFF750FC3D
:10340000E6E09DF8120000069DF8131040EA014026
:103410009DF8141040EA01209DF8151040EA0104BF
:103420002046FDF7B7FD0DF1120270217E480078AD
:10343000FFF736FCCCE09DF8151001F007001C21C9
:10344000FEF7C4FB0DF11202712177480078FFF7F7
:1034500027FCBDE09DF8120000069DF8131040EA1D
:1034600001409DF8141040EA01209DF8151040EA33
:1034700001042046FFF75CFC0DF1120272216A483C
:103480000078FFF70DFCA3E09DF8120000069DF800
:10349000131040EA01409DF8141040EA01209DF805
:1034A000151040EA01042046FFF74CFC0DF1120212
:1034B00074215D480078FFF7F3FB89E09DF8120066
:1034C00000069DF8131040EA01409DF8141040EAF0
:1034D00001209DF8151040EA01042046FFF756FC34
:1034E0000DF11202752150480078FFF7D9FB6FE00B
:1034F0009DF815402046FDF71DF8054629460DF1BB
:103500001200FFF7E3FC0DF112028021464800781B
:10351000FFF7C6FB5CE002A91620FFF7E1FA02AA5A
:10352000812141480078FFF7BBFB51E0FEF7E4F949
:10353000044621460DF11200FFF7C8FC0DF11202FE
:10354000822139480078FFF7ABFB41E0FEF7DAF95A
:10355000044621460DF11200FFF7B8FC0DF11202EE
:10356000832131480078FFF79BFB31E0FEF790FAAA
:10357000044621460DF11200FFF7A8FC0DF11202DE
:10358000842129480078FFF78BFB21E0FEF786FABB
:10359000044621460DF11200FFF798FC0DF11202CE
:1035A000852121480078FFF77BFB11E0FEF7C2F987
:1035B000044621460DF11200FFF788FCFEF784F95E
:1035C0000DF11202862118480078FFF769FB00BF51
:1035D0000DE0002409E004AA1119154A126800231D
:1035E00010681A4600F0C0FA641C062CF3DB11497F
:1035F00009680868FFF786FC0628BFF4C4AC0D49CB
:1036000009680868FFF77EFC28B10A49096808685C
:10361000002100F059FA4FF0805007490860BFF3CD
:103620004F8FBFF36F8FA6E400000020785634124E
:10363000100000200C00002004ED00E000BFBF20BF
:1036400080F31188BFF34F8FBFF36F8F00BF034824
:103650000068401C0149086070470000DC00002041
:1036600006480068401E054908600846006820B901
:10367000002080F3118800BF00BF7047DC000020ED
:1036800070B506463546B6B1083D2C4600F066F9E1
:103690006168094800E00068026852688A42FAD30B
:1036A00002682260046005496068096808440349AB
:1036B000086000F0A7FF70BDE0000020F0000020CF
:1036C00000204FF0E021086188610248486107202E
:1036D000086170477F3801002DE9F04105460E462C
:1036E00017462C46FFF7AAFF94F94400401C10B976
:1036F000002084F8440094F94500401C10B90020D3
:1037000084F84500FFF7ACFFA06B28B93A46314674
:1037100004F1240000F056F82046FFF7E3F8BDE876
:10372000F081000008B500BF00200090124800683A
:10373000FFF7E8FB062815D3062410E0641E4FF0BF
:10374000FF3269460C48006800F01CFB012806D1D6
:103750009DF80000FFF786FA0420FDF721FC002CFD
:10376000ECDC00BF4FF0805004490860BFF34F8F7E
:10377000BFF36F8FD8E700003800002004ED00E0B1
:103780000349096801600349096841607047000006
:10379000B00000209C000020012001490860704713
:1037A000AC00002070B505460C460548016818318C
:1037B0002846FFF7C0FB01212046FEF783FC70BDC1
:1037C0008800002070B504460E46154660680F4913
:1037D0000968C8610D49826809680A620B4909686D
:1037E00018318268516009490968183181600749B8
:1037F00009688C622168491C21600DB14FF0FF36C9
:1038000029463046FEF75EFC70BD000088000020AF
:103810002DE9F04706460F4634464FF00109002EC9
:103820005AD0606CB84201D23D4600E0656CE06A57
:10383000A84251D0A06C01284ED1D4F82C80E5626A
:10384000A06900F0004010B9C5F10500A06108EBC7
:103850008801224A02EB81016069884201D101207E
:1038600000E00020C0B3201DFFF738FB40B994F8FA
:103870002C10012088401A490968814318480160CA
:1038800094F82C1001208840154909680843144910
:103890000860E16A01EB8101104A02EB810148688E
:1038A000A0608268E260211D826851608160E16AE7
:1038B00001EB8101094A02EB81026261E16A01EBDD
:1038C0008101064A52F82110491CE26A02EB820289
:1038D000024B43F8221000BFBDE8F087FC01002036
:1038E000A00000201CB5154800210B468222CDE91E
:1038F000001013A1144800F027FC0446012C02D14B
:1039000000F068FF0446012C14D100BFBF2080F3F3
:103910001188BFF34F8FBFF36F8F00BF4FF0FF30A1
:103920000A49086001200A49086000200949086026
:1039300000F078F8084800681CBD0000BC000020BA
:1039400049444C45000000002D240008B800002028
:10395000A40000209C000020C00000200248006855
:10396000401C014908607047C400002012480068EC
:1039700018B10120114908601DE000200F490860BE
:103980000F480068B0FA80F0C0F11F0101EB81021E
:103990000C4B03EB820042685268426000F108025F
:1039A0004368934202D14268526842604268D268DA
:1039B000054B1A6000BF7047C4000020AC00002017
:1039C000A0000020FC010020880000202DE9F0412B
:1039D00007460D4616464FF0000811480068E0B152
:1039E0004FF0FF310E48006800F04EFA012814D164
:1039F0003846FFF78FF9002404E0285DFFF78AF9C5
:103A0000601C84B2B442F8DBA04600231A46194673
:103A10000348006800F0A8F800BF4046BDE8F08108
:103A20006000002010B50A48006840F47F00084993
:103A300008600846006840F07F400860FFF740FEDD
:103A4000002004490860FCF79BFB002010BD00002B
:103A500020ED00E0DC00002070B504460E46002595
:103A60004CB1A64207D802220021204600F005F8FA
:103A7000054605B1AE63284670BD2DE9F8430446FE
:103A80000E4617460025DCB1681EB0FBF4F0B042CC
:103A900016D304FB06F010F1490F11D804FB06F908
:103AA00009F14800FEF75EFF05464DB1A84608F152
:103AB00048083B464246314620460095FEF7CAFC80
:103AC0002846BDE8F88300002DE9F04105460E4682
:103AD00001272C46002C41D0E06B00283ED0B91EB7
:103AE000E06BB1FBF0F0216C884237D3FFF7A6FD05
:103AF000D4E90F12206801FB0200A0600020A0633F
:103B000020686060E06B401E226C216800FB02119F
:103B1000E160FF2084F8440084F845009EB92069E4
:103B200008B9012000E00020A8B904F1100000F05D
:103B3000E5FC80B14FF080500A490860BFF34F8F19
:103B4000BFF36F8F07E004F11000FFF7E4F904F111
:103B50002400FFF7E0F9FFF783FD00E00027384677
:103B6000BDE8F08104ED00E02DE9FF4383B0074696
:103B700088461D464FF000093C4600BFFFF75EFD3A
:103B8000A06BE16B884201D3022D28D12A46414621
:103B90002046FEF7C8FB0646606A08B9012000E02F
:103BA000002068B904F1240000F0A8FC88B14FF0AF
:103BB000805032490860BFF34F8FBFF36F8F08E02A
:103BC0003EB14FF080502D490860BFF34F8FBFF3D7
:103BD0006F8FFFF745FD012007B0BDE8F083059822
:103BE00018B9FFF73DFD0020F6E7B9F1000F04D149
:103BF00001A8FFF7C5FD4FF00109FFF731FDFFF701
:103C0000ADFEFFF71BFD94F94400401C10B90020E5
:103C100084F8440094F94500401C10B9002084F851
:103C20004500FFF71DFD05A901A800F05DFAF0B9F8
:103C30002046FEF7F4FCA0B104F110000599FFF74F
:103C4000B1FD2046FEF74EFE00F0DCFC002895D1C9
:103C50004FF0805009490860BFF34F8FBFF36F8F5B
:103C60008CE72046FEF73EFE00F0CCFC86E72046BF
:103C7000FEF738FE00F0C6FC0020ADE704ED00E0E2
:103C80002DE9F84F05468A4616461F462C4600BFCA
:103C9000BF21EFF3118081F31188BFF34F8FBFF382
:103CA0006F8F00BF8146A06BE16B884201D3022F6A
:103CB00022D194F945B0A06B00903A465146204677
:103CC000FEF731FB0BF1010070B9606A08B9012001
:103CD00000E0002038B904F1240000F00FFC10B11E
:103CE0000EB10120306004E00BF1010040B284F815
:103CF00045004FF0010801E04FF0000800BF89F3D4
:103D0000118800BF4046BDE8F88F2DE9F047054611
:103D10000E462C4600BFBF21EFF3118081F31188BE
:103D2000BFF34F8FBFF36F8F00BF8046D4F838903A
:103D3000E06B48451DD994F945A009F10100A06345
:103D40000AF1010070B9606A08B9012000E00020A2
:103D500068B904F1240000F0D1FB40B13EB101206C
:103D6000306004E00AF1010040B284F84500012708
:103D700000E0002700BF88F3118800BF3846BDE887
:103D8000F08700002DE9F74183B005460F464FF05C
:103D900000082C4600BFFFF751FCA66BF6B1394670
:103DA0002046FEF7ABFA701EA063206908B9012017
:103DB00000E0002060B904F1100000F09FFB38B172
:103DC0004FF080502F490860BFF34F8FBFF36F8FC4
:103DD000FFF746FC012006B0BDE8F081059818B950
:103DE000FFF73EFC0020F6E7B8F1000F04D101A870
:103DF000FFF7C6FC4FF00108FFF732FCFFF7AEFDFE
:103E0000FFF71CFC94F94400401C10B9002084F812
:103E1000440094F94500401C10B9002084F8450086
:103E2000FFF71EFC05A901A800F05EF9F0B92046D5
:103E3000FEF7E8FBA0B104F124000599FFF7B2FCFE
:103E40002046FEF74FFD00F0DDFB0028A3D14FF028
:103E500080500C490860BFF34F8FBFF36F8F9AE714
:103E60002046FEF73FFD00F0CDFB94E72046FEF72D
:103E700039FD00F0C7FB2046FEF7C4FB00288AD0BE
:103E80000020A8E704ED00E02DE9F34182B00546EB
:103E900000272C46B84600BFFFF7D0FBA66BFEB14B
:103EA000701EA063206810B9FEF7C4FDA0602069F1
:103EB00008B9012000E0002060B904F1100000F012
:103EC0001DFB38B14FF080503A490860BFF34F8F67
:103ED000BFF36F8FFFF7C4FB012004B0BDE8F08192
:103EE000039818B9FFF7BCFB0020F6E71FB9684636
:103EF000FFF746FC0127FFF7B3FBFFF72FFDFFF7A6
:103F00009DFB94F94400401C10B9002084F8440043
:103F100094F94500401C10B9002084F84500FFF7D3
:103F20009FFB03A9684600F0DFF840BB2046FEF780
:103F300069FBF0B1206838B9FFF780FBA06800F09A
:103F400067FA8046FFF78CFB04F124000399FFF722
:103F500029FC2046FEF7C6FC00F054FB00289BD14C
:103F60004FF0805013490860BFF34F8FBFF36F8F3E
:103F700092E72046FEF7B6FC00F044FB8CE72046B3
:103F8000FEF7B0FC00F03EFB2046FEF73BFB0028AE
:103F900082D0B8F1000F0BD0FFF750FB2046FEF7A0
:103FA0000AFA06463146A068FFF732FCFFF758FBD5
:103FB000002092E704ED00E07CB5044602250020D5
:103FC0003F490880FDF7C6FBFDF7E8FB0022012111
:103FD000C820FFF752FD3B49086000220121C8209C
:103FE000FFF74BFD3849086036480068002863D069
:103FF0000846006800285FD001218020FCF7B0FE51
:1040000000213248FDF7F0FA0720012181404209E2
:10401000920002F1E022C2F8001100BF2C48FDF727
:104020008BFB2B4804606020294988800020C880D1
:10403000088148814FF4407088812448FDF71CFBBB
:1040400001224FF482612148FDF70CFB01211F483A
:10405000FDF7ECFAFCF766FF012019490880002102
:104060001820FFF7F9FC1B4908600846006808B9EA
:10407000002522E0124800884FF6FF7101EA400057
:104080000F4908800020012103464FF48272CDE9D8
:10409000001011A1134800F057F8012801D00025A5
:1040A00007E0074800884FF6FF7101EA4000044925
:1040B0000880FDF79BFB00E0002528467CBD000042
:1040C0002800002038000020340000200080034039
:1040D000080100202C00002073656E645561727425
:1040E000000000002537000870B506460C46FFF7B3
:1040F000A5FA134802687068131A2068401C08B9B2
:10410000002519E00F4930680968884206D07068B8
:10411000904203D80125002020600DE020689842DD
:1041200007D92068C01A20603046FFF729FB002518
:1041300002E0002020600125FFF792FA284670BDBA
:104140009C000020B00000202DE9FF4F85B0804684
:1041500089461746DDE912ABB800FEF703FC0646B8
:1041600056B15420FEF7FEFB04460CB1266304E072
:104170003046FFF785FA00E000247CB10020CDE94D
:1041800000ABCDE902403A4649464046089BFEF75F
:1041900074F92046FDF7F6FF012501E04FF0FF35E9
:1041A000284609B0BDE8F08F0549096809B9012022
:1041B00005E00449096809B9022000E000207047C1
:1041C000A4000020C40000200149086870470000D6
:1041D0009C0000202DE9F041002757480068002886
:1041E0007ED156480068451C544805608DB9544836
:1041F000D0F8008053480068514908605148C0F821
:10420000008051480068401C4F490860FEF702FBDF
:1042100000BF4E480068854276D300BF484800681A
:10422000006808B9012000E0002020B14FF0FF3005
:104230004649086067E042480068C068C46866682C
:10424000B54202D2414806605DE06069D4E90212DD
:104250008A60D4E902214A60211D42688A4201D164
:10426000E1684160002262610168491E0160A06A44
:1042700098B1A06AD4E907128A60D4E907214A609C
:1042800004F1180142688A4201D1216A416000228A
:10429000A2620168491E016000BF94F82C10012041
:1042A00088402B490968084329490860E16A01EB05
:1042B0008101284A02EB81014868A0608268E260BF
:1042C000211D826851608160E16A01EB8101214A10
:1042D00002EB81026261E16A01EB81011D4A00E0AB
:1042E00022E052F82110491CE26A02EB8202194BCB
:1042F00043F822101849E06A0968C96A88428DD3D8
:1043000001278BE700E000BF13480068C06A00EB9C
:104310008000104951F82000012800D901270F48DA
:10432000006800B1012704E00D480068401C0C49FA
:1043300008603846BDE8F081C40000209C000020E1
:104340008C00002090000020B0000020B800002069
:10435000A0000020FC01002088000020AC0000200C
:10436000A800002070B505462C460026002D48D038
:10437000A06C401EA064616CE06A884241D0A06CD1
:1043800000283ED1201DFEF7A9FD40B994F82C105D
:10439000012088401C49096881431B480160606C0A
:1043A000E062E06AC0F10500A06194F82C100120E1
:1043B000884015490968084313490860E16A01EB20
:1043C0008101124A02EB81014868A0608268E260C4
:1043D000211D826851608160E16A01EB81010B4A15
:1043E00002EB81026261E16A01EB8101074A52F846
:1043F0002110491CE26A02EB8202044B43F82210AE
:104400000126304670BD0000A0000020FC01002005
:1044100070B505462C460026002D67D03449E06A69
:104420000968C96A88425AD2A06900F0004028B9D8
:104430002F480068C06AC0F10500A061E16A01EB85
:1044400081012C4A02EB81016069884201D101207F
:1044500000E00020E0B3201DFEF740FD40B994F8D5
:104460002C100120884024490968814322480160BA
:104470001F480068C06AE06294F82C100120884050
:104480001D49096808431C490860E16A01EB810184
:10449000184A02EB81014868A0608268E260211D31
:1044A000826851608160E16A01EB8101114A02EB8F
:1044B00081026261E16A01EB81010E4A52F821102A
:1044C000491CE26A02EB82020A4B43F8221004E024
:1044D000FFE707480068C06AE062012606E0044979
:1044E000606C0968C96A884200D20126304670BDF6
:1044F00088000020FC010020A000002070B50346C9
:10450000D868C168886AD1E90745A560D1E9075430
:10451000656001F118044568A54201D10C6A446048
:1045200000258D620468641E04603048006800281D
:104530003DD14869D1E90245A560D1E902546560E1
:104540000C1D4568A54201D1CC68446000254D6131
:104550000468641E046091F82C400120A040244CA3
:1045600024682043224C2060CC6A04EB8404214D53
:1045700005EB8404606888608568CD600C1D8568E3
:104580006C608460CC6A04EB84041A4D05EB8405EE
:104590004D61CC6A04EB8404164D55F82440641C2C
:1045A000CD6A05EB8505134E46F8254010E0124C08
:1045B0006068C86185680D6201F1180485686C60E7
:1045C00084600D4D8D622C462468641C2C6000BFF5
:1045D0000A4CC86A2468E46AA04204D90122012076
:1045E000074C206000E00022104670BDC40000208F
:1045F000A0000020FC01002088020020880000208C
:10460000AC00002070B500240026FFF717F84B48D7
:104610000068401E494908600846006800287DD1AE
:1046200047480068002879D05BE04648C068C46805
:10463000A06AD4E907128A60D4E907214A6004F12C
:10464000180142688A4201D1216A41600022A262B7
:104650000168491E01606069D4E902128A60D4E9E8
:1046600002214A60211D42688A4201D1E16841600D
:10467000002262610168491E016094F82C1001203B
:1046800088403149096808432F490860E16A01EB15
:1046900081012E4A02EB81014868A0608268E260D5
:1046A000211D826851608160E16A01EB8101274A26
:1046B00002EB81026261E16A01EB8101234A52F857
:1046C0002110491CE26A02EB8202204B43F82210BF
:1046D0001F49E06A0968C96A884202D301201D495E
:1046E00008601848006808B9012000E00020002890
:1046F0009BD00CB1FEF78EF81748056865B100BF76
:10470000FFF768FD10B10120124908606D1E002DF1
:10471000F6D10020104908600E4800E009E000686A
:1047200038B1012630070D490860BFF34F8FBFF342
:104730006F8FFEF795FF304670BD0000C40000206B
:104740009800002088020020A0000020FC0100202A
:1047500088000020AC000020A800002004ED00E04C
:1047600008B515E003E09DF80000FEF7BBFA4FF036
:10477000FF32694607480068FFF704FB0128F2D0C2
:104780004FF0805004490860BFF34F8FBFF36F8F25
:10479000E8E700006400002004ED00E02DE9FC479C
:1047A00005460E4617469846DDF828902820FEF765
:1047B000D9F8044654B1002084F8240043463A4610
:1047C00031462846CDE90094FDF79FFE2046BDE81E
:1047D000FC8700001CB50024FDF746FD0848006872
:1047E00058B10848012100234FF48272CDE900102E
:1047F00005A10748FFF7A8FC044620461CBD0000A1
:10480000D0000020D4000020546D72205376630045
:10481000CB2800082DE9FE4305460C4616461F46E8
:10482000DDF828804FF000091448006810B30094A8
:1048300001960295062C15DAFFF7B6FC022808D17E
:104840000023424669460D480068FFF78DF981460E
:1048500010E000231A46694608480068FFF784F90B
:10486000814607E000233A46694604480068FFF79E
:1048700007FA81464846BDE8FE830000D0000020CC
:104880002DE9C04130B4DFF8A0C23CEA111418BFD2
:104890003CEA131400F0EC8081EA03051CEA1114D1
:1048A00044EAD57418BF1CEA131500F0C780A4EBC6
:1048B00005044FF0004545EAC12145EAC32341EA1A
:1048C000505143EA525304F17F74994204F5003485
:1048D0004FEAC0204FEAC22208BF904200F09C80FD
:1048E0004FEA13650FF24016765D4FEA134506FB5B
:1048F00005F7C7F1807706FB07F74FEAD737A7FB25
:1049000003687642C8F58038A7FB06CE38BFA8F109
:10491000010807FB08E64FF0000EA6FB028CE6FB41
:1049200003CEDCF1000CCEF1004E38BFAEF1010E2B
:10493000A6FB0C584FF000074FF00005E6FB0E8772
:10494000A1FB08C6A0FB07CE16EB0E0645F100053D
:10495000E1FB076515F1E04E7EBFA4F580345FEA08
:1049600046066D4116F1800745F100054FEA17270D
:104970004FEA066647EA0567A6F1DE46B6F1805FB4
:104980004FEA15251FD9384624F0010C05EBC471F8
:10499000BCF1FE6F01EB0C1102D8F0BCBDE8008148
:1049A00024425CBF01F5801E9EEAC47F02D4F0BCA5
:1049B000BDE80081244238D4F0BCA1F1C041BDE87B
:1049C000004100F0EDB94FEAD22242EA43524FEAE9
:1049D000D323A7FB02864FEAD02040EA415007FBD1
:1049E00003661EEA0E0F4FEAD12105FB026658BF8F
:1049F000A6EB0056B6EB00564FEA520E4EEAC37EC7
:104A000018EB0E0E56EB530EBDD518EB02085E41A7
:104A10007F1C55F10005B6E74FF480154FF00007F5
:104A20004FF000064FF00008ADE7F0BC4FF000007B
:104A300001F1C04101F00041BDE8008111EA0C1F05
:104A40000CEA131500D00CE013EA0C1F00F02580CF
:104A50004FF00000F0BC81EA030101F00041BDE825
:104A60000081F0BCBDE8004181EA030100F098B983
:104A7000F0BCBDE8004170B500F044F9097EFC3E91
:104A800000F007B881EA03014FF0000001F0004197
:104A9000704781EA030100F083B9F0BCBDE8004132
:104AA0004FF0000021497047FFFDFBF9F7F5F4F2E4
:104AB000F0EEEDEBE9E8E6E4E3E1E0DEDDDBDAD8B9
:104AC000D7D5D4D3D1D0CFCDCCCBCAC8C7C6C5C417
:104AD000C2C1C0BFBEBDBCBBBAB9B8B7B6B5B4B32E
:104AE000B2B1B0AFAEADACABAAA9A8A8A7A6A5A419
:104AF000A3A3A2A1A09F9F9E9D9C9C9B9A999998DD
:104B00009797969595949393929191908F8F8E8E7F
:104B10008D8C8C8B8B8A898988888787868585840C
:104B200084838382828181800000FF070000F87FF8
:104B30004FEA1153A3F58063D3F11E03A8BFD3F14D
:104B4000200C08DB4FF0004242EAC12252EA5052E8
:104B500032FA03F0704709420BD4102BC4BF002077
:104B6000704703F5787CBCF1FF3F05D04FF0FF3074
:104B700070474FF00000704770B500F0C3F800BFF9
:104B80004992248000207047F0E7B0FA80F310FAD1
:104B900003F10AD0C3F11D0303F580634FEA4150CE
:104BA0004FEA035202EBD12170474FF000007047EB
:104BB000DFF848C170B51CEA111E1EBF1CEA1315B0
:104BC0009EEA0C0F95EA0C0F00F06F8081EA030457
:104BD00023EA4C134EEAD47E21EA4C1141F48011B1
:104BE00043F48013AE44A1FB024CA0FB0365AEF17D
:104BF0007F7E361955EB0C05A1FB034C4CF10003ED
:104C0000A0FB021C16EB0C06654153F100030942A0
:104C100018BF46F0010613F4007F0BD14FEA0331B1
:104C20004FEA0530340341EA155140EA16506FF05F
:104C300003020AE04FEAC3214FEAC520F40241EA29
:104C4000555140EA56506FF0020202EB2E4201EB42
:104C5000025585EACE710AD05FEA440C18BF24F0F1
:104C6000004450F1000041F1000120EAD47040F20C
:104C7000FE7C624500D270BDA84214BF4FF0804454
:104C80004FF04044002E08BF0024BEF1806FA8BF43
:104C9000A1F1C041BDE8704080F282804FF0000079
:104CA00001F1C04101F0004170479EEA0C0F0CEA8F
:104CB000131518BF95EA0C0F06D04FF0000081EADB
:104CC000030E0EF0004170BD00F01CF88900013E9B
:104CD00000F007B800F009B84FEA430C5FEA5C5CEB
:104CE00008D081EA030100F05BB84FEA410C5FEAAB
:104CF0005C5CF6D14FF00000014970470000FF07EF
:104D00000000F87F0EF1020E2EF0030E5EF8046B29
:104D1000364205D4012A43EB030515F5001F12D8CE
:104D2000012841EB010C1CF5001F0CD80ED14FEAF5
:104D3000D17C15F5001F0CEB4C0C0CF1020C08BFDC
:104D40004CEBD37C04E04FF0080C01E04FEAD37C3D
:104D50000CEB4C0526FA05F606F00706B6F1040C36
:104D600006D20EEB860CBDE870404CF0010C60479B
:104D7000DFE80CF0090B02024FF000414FF0000099
:104D8000A1F5002170BD19461046012851EB010420
:104D900018BFD4F5001484BF002001F0004170BD9D
:104DA0000808A0F500114FEA310170472DE9F041E4
:104DB00001F5801CBCF5001FC0F2C3804FEA115CF6
:104DC00021EA0C510CF1FD0C41F480115FEA5C0CFE
:104DD0000CF5C07C01D3400049413DA4890241EA61
:104DE000905187028E0E0A0CA45D04FB04F602FBB0
:104DF00006F6C6F14046A4FB0662F60D46EA4226D8
:104E000006FB06F4A4FB01235242C3F1404338BF22
:104E10005B1EA6FB02420024E6FB0324D20B42EAFF
:104E20004446A6FB0623A1FB02E2A3FB07E4A41869
:104E30004FF0000252F10002E3FB01426442C2F172
:104E4000404E38BFAEF1010EA6FB04234FF0000226
:104E5000E6FB0E32A2FB03464FF00004B61954F1F4
:104E60000004E2FB0264A1FB06E6A4FB07E816EBE4
:104E700008064FF0000858F10008E4FB016876428C
:104E8000C8F1405838BFA8F10108A2FB06E4A3FB13
:104E900008E52D194FF0000454F10004E2FB08541A
:104EA000A1FB05E6A7FB04E818EB06084FF0000697
:104EB00056F10006E1FB048618F1200556F10006C4
:104EC000A809A8F11B08B10908F03F08B8F10A0FBA
:104ED00040EA86601CD901EB0C51BDE8F08100BFAF
:104EE000FCF5EEE8E2DDD8D3CFCBC7C3C0BDB9B681
:104EF000B4B1AEACA9A7A5A3A19F9D9B9A98969586
:104F00009392908F8D8C8B8988878685848382810C
:104F1000A0FB006800FB01F208EB4208B8EB872811
:104F200007D5341858EB0104D5D5401C51F10001C8
:104F3000D1E7341A78EB0104CDD4401E71F10001A1
:104F4000C9E75FEA4C0C5FEA9C5C0DD105D34FF0DA
:104F5000000001F00041BDE8F081BDE8F04170B50E
:104F6000FFF7D0FE6DDBFFBEBDE8F0414FF0000063
:104F7000004970470000F87F984F000800000020AB
:104F8000FC000000FC00000894500008FC00002019
:104F9000544C000018010008090000000000000047
:104FA0000000000000000000000000000000000001
:104FB00000000000000000000000000000000000F1
:104FC00000000000000000000000000000000000E1
:104FD00000000000000000000000000000000000D1
:104FE00000000000000000000000000000000000C1
:104FF00000000000000000000000000000000000B1
:1050000000000000000000000000000000000000A0
:105010000000000000000000000000000000000090
:105020000000000000000000000000000000000080
:105030000000000000000000000000000000000070
:105040000000000000000000000000000000000060
:10505000000000000000000004000000000000004C
:105060000000000000000000000000000000000040
:1050700000000000AAAAAAAA000000000000000088
:105080000000000000000000F843000000000000E5
:0450900000127A0090
:04000005080001F5F9
:00000001FF
