:020000040800F2
:10000000784D0020F5010008D107000841050008DF
:10001000CD070008AB040008A1170008000000008D
:100020000000000000000000000000005D0100086A
:10003000B704000800000000A1010008FD1000083E
:10004000AF040008B1040008911600080000000089
:1000500000000000B5040008791400087D140008B1
:10006000D50D00080000000045050008370900080C
:10007000A517000800000000DF130008E1130008C6
:1000800031140008A704000800000000B3040008B1
:10009000D90D000800000000000000000000000072
:1000A000000000000000000000000000A90400089B
:1000B0000D0500080F0500081105000813050008CC
:1000C00000F002F800F03AF80AA090E8000C824430
:1000D0008344AAF10107DA4501D100F02FF8AFF20D
:1000E000090EBAE80F0013F0010F18BFFB1A43F016
:1000F000010318479C4E0000BC4E0000103A24BF7C
:1001000078C878C1FAD8520724BF30C830C144BF7C
:1001100004680C60704700000023002400250026BE
:10012000103A28BF78C1FBD8520728BF30C148BF5A
:100130000B6070471FB51FBD10B510BD00F07EF9F4
:100140001146FFF7F7FF01F031FF00F09CF903B40F
:10015000FFF7F2FF03BC00F09FF90000224B196883
:100160000868B0E8F00F80F30988BFF36F8F4FF095
:10017000000080F311884EF00D0E70470000000063
:1001800006480068006880F3088862B661B6BFF36D
:100190004F8FBFF36F8F00DF00BF00BF08ED00E09F
:1001A000EFF30980BFF36F8F0F4B1A6820E9F00F50
:1001B000106008B54FF0BF0080F31188BFF34F8F78
:1001C000BFF36F8F03F0DEFB4FF0000080F3118868
:1001D000BDE8084019680868B0E8F00F80F30988A6
:1001E000BFF36F8F704700BF8C000020EFF30580D6
:1001F000704700000948804709480047FEE7FEE7CE
:10020000FEE7FEE7FEE7FEE7FEE7FEE7FEE7FEE7C6
:1002100004480549054A064B70470000C111000813
:10022000C100000878470020784D00207849002060
:100230007849002053EA020C00F069802DE9F04B68
:100240004FF00006002B1FBFB3FA83F503FA05F445
:1002500024FA05F65E4012BF1643B2FA82F502FA9E
:1002600005F4C5F120051EBF22FA05FC44EA0C0482
:10027000203556EA044C4FEA144418BF641C4FF072
:1002800000084FF00009904271EB030C39D30029AC
:1002900019BFB1FA81F701FA07F6B0FA80F700FA50
:1002A00007F6C7F120071EBF20FA07FC46EA0C0636
:1002B0002037B6FBF4FCA7EB0507103F07F01F0B38
:1002C000CBF120060CFA0BFB2CFA06F644BFB34622
:1002D0000026202FA4BF5E464FF0000B5BEA060C01
:1002E00008BF4FF0010B19EB0B09ABFB027C48EB8D
:1002F0000608C01B06FB02CC0BFB03CC71EB0C0108
:10030000C1E70B46024641464846BDE8F08B13B5AF
:100310004FF000004FF00001AFF30080BDE81C403B
:100320007047032A40F2308010F0030C00F0158073
:1003300011F8013BBCF1020F624498BF11F801CBE8
:1003400000F8013B38BF11F8013BA2F1040298BF4D
:1003500000F801CB38BF00F8013B11F0030300F0B7
:100360003380083AC0F0088051F8043B083A51F84D
:1003700004CBA0E80810F5E7121D5CBF51F8043B60
:1003800040F8043BAFF30080D20724BF11F8013BD3
:1003900011F801CB48BF11F8012B24BF00F8013B35
:1003A00000F801CB48BF00F8012B70477047704739
:1003B000704710B500F03AF8006810BD10B504465B
:1003C00000F034F8046010BD10B5203AC0F00B8086
:1003D000B1E81850203AA0E81850B1E81850A0E849
:1003E0001850BFF4F5AF5FEA027C24BFB1E81850A3
:1003F000A0E8185044BF18C918C0BDE810405FEA13
:10040000827C24BF51F8043B40F8043B08BF70478E
:10041000D20728BF31F8023B48BF11F8012B28BF93
:1004200020F8023B48BF00F8012B70470048704796
:100430001847002000487047184700207546FFF70E
:10044000F9FFAE4605006946534620F00700854691
:1004500018B020B5FFF7DCFEBDE820404FF00006E5
:100460004FF000074FF000084FF0000B21F007019C
:10047000AC46ACE8C009ACE8C009ACE8C009ACE8DF
:10048000C0098D46704710B50446AFF30080204682
:10049000BDE81040FFF75BBE01491820ABBEFEE788
:1004A0002600020070477047704700BFFEE77047A4
:1004B000704770477047704710B50121202000F049
:1004C0003FFC0121080200F03BFC0121080500F07F
:1004D00037FC0A480A4908604FF00060091F0860AD
:1004E0004817084908604FF0E021C1F8800106492B
:1004F0004862C86100F028F810BD00000005FA0548
:100500000CED00E080E200E00080024070477047A0
:1005100070477047004870472C0000200048704723
:100520003400002000487047380000200048704721
:10053000B40100200146014880697047B4010020E1
:1005400000BFFEE77047000010B50121114800F020
:10055000F7FB114800F0E1F90F49104800F039F9B4
:100560000D490F4800F035F90B490E4800F031F9FC
:1005700009490D4800F02DF907490C4800F029F908
:1005800005490B4800F025F90021024800F0D8FB8E
:1005900010BD00000000E0230001002000800A40A0
:1005A00000000B4000800B4000000C4000800C401D
:1005B00000800E4008B50020264908804FF00072E8
:1005C0000221254800F0BAFC4FF0007204212248B5
:1005D00000F0B4FC4FF080728021204800F0AEFCA7
:1005E00000201F4908801F4800231A4696210090CA
:1005F0001DA004F0DFF81E4908601A4800231A46BF
:10060000962100901BA004F0D5F81C4908601548FD
:1006100000231A469621009019A004F0CBF81A493D
:100620000860012000F0ACFC022000F0A9FC0420CE
:1006300000F0A6FC0E48006840B11048006828B1E0
:100640001148006810B10120024908800148008863
:1006500008BD00001800002000800C4000000C4085
:100660001A00002075100008546D7231000000005F
:100670001C000020546D7232000000002000002099
:10068000546D7233000000002400002010B50446B1
:10069000012C04D0022C0ED0042C24D117E002210E
:1006A000124800F036F9124800884FF6FE710840F3
:1006B0000F49088018E004210C4800F02AF90C4882
:1006C00000884FF6FD710840094908800CE0802140
:1006D000084800F01AF9064800884FF6FB710840F8
:1006E0000349088000E000BF00BF10BD00800C403F
:1006F0001A00002000000C4010B50446012C04D064
:10070000022C0DD0042C21D115E00221114800F05B
:10071000FCF81148008840F001000F49088016E0FD
:1007200004210C4800F0F1F80B48008840F002006A
:10073000094908800BE08021084800F0EAF80648E3
:10074000008840F004000449088000E000BF00BFBA
:1007500010BD000000800C401A00002000000C407A
:1007600070B504462546012D04D0022D0FD0042D6E
:1007700027D119E01448008800F0010018B10120C9
:10078000FFF784FF02E00120FFF7B6FF1AE00E48F2
:10079000008800F0020018B10220FFF777FF02E0A6
:1007A0000220FFF7A9FF0DE00748008800F00400D1
:1007B00018B10420FFF76AFF02E00420FFF79CFF56
:1007C00000E000BF00BF70BD1A00002000BFFEE7C0
:1007D00070472DE9FE4F44688568C6680769D0F800
:1007E00014C0D0F81880D0F81C90002201234FF0DC
:1007F000030ACDF804A04FF0011ACDF800A0B1F81B
:1008000000A0CDF808A06CE0DDF808A00AF0010A0D
:10081000BAF1000F51D024EA030A91F802B00BFAA2
:1008200002FB4AEA0B0491F808A04FEA420B0AFACD
:100830000BFADDF804B025EA0B0B4AEA0B0526EAB1
:10084000030A91F80AB00BFA02FB4AEA0B06DDF83C
:1008500000A027EA0A0A91F803B002F1100E0BFA81
:100860000EFB4AEA0B0A91F804B00BFA02FB4AEAC3
:100870000B07DDF800B02CEA0B0A91F805B00BFA73
:100880000EFB4AEA0B0A91F806B00BFA02FB4AEAA1
:100890000B0C91F809A04FEA420B0AFA0BFADDF8AB
:1008A00004B028EA0B0B4AEA0B0829EA030A91F87C
:1008B00007B00BFA02FB4AEA0B095B00DDF804A063
:1008C0004FEA8A0ACDF804A0DDF800A04FEA4A0AF0
:1008D000CDF800A0521CDDF808A04FEA5A0ACDF866
:1008E00008A0DDF808A0BAF1000F8DD14460856042
:1008F000C6600761C0F814C0C0F81880C0F81C902A
:10090000BDE8FE8F01460868704702688A430260AE
:10091000704702680A43026070474FF6FF7101801A
:1009200000218170C170017141718171C1710172C9
:10093000417281727047704701490860704700003A
:100940008800404210B502460C4BD86820F00300E6
:100950001043D860586820F4706040EA0120586065
:10096000074B1B6843B10123054C241D2360002362
:10097000034C883CC4F88C3010BD000000000240DD
:1009800088004042014908607047000088014042E9
:100990000146044AD06820F0F00040EA0110D0601F
:1009A00070470000000002400146034AD06820F46E
:1009B00040700843D06070470000024000B500F06E
:1009C000CFF90121C80600F0BBF90648C06B40F41E
:1009D00081000449C8630846C06B00F48100C86305
:1009E00000BD000000800D402DE9FC4F0146DFF8FE
:1009F00064B2DBF80CB00BF0020BBBF1000F01D0BE
:100A0000954B00E0944BDFF84CB2DBF80CB00BF0E8
:100A1000010BBBF1000F00D05B081C46DFF834B2BD
:100A2000DBF80CB00BF0040BBBF1000F0DD0DFF8BE
:100A300024B2DBF804B0CBF3032B0BF1010BCDF8A0
:100A400000B0DDF800B004FB0BF4DFF808B2DBF80F
:100A50000CB0CBF3012BBBF1000F06D0BBF1010FA3
:100A600008D0BBF1020F28D122E0DFF8ECB1C1F8C9
:100A700000B027E0DFF8DCB1DBF80CB04FF0080E77
:100A80000EEA1B1BBBF1000F01D1A0460DE0DFF801
:100A9000C4B1DBF80CB0CBF3021B0BF1010B4FF030
:100AA000010E0EFA0BFEB4FBFEF8C1F8008009E05F
:100AB0004FF4004BC1F800B004E049F6404BC1F8D8
:100AC00000B000BF00BFDFF88CB1DBF810B00BF056
:100AD000020BBBF1000F01D05F4D00E05E4DDFF86F
:100AE00074B1DBF810B00BF0010BBBF1000F00D0BC
:100AF0006D082F46DFF85CB1DBF810B00BF0040B8B
:100B0000BBF1000F0DD0DFF84CB1DBF804B0CBF334
:100B1000031B0BF1010BCDF800B0DDF800B007FBB3
:100B20000BF7B946DFF82CB1DBF810B00BF0100B67
:100B3000BBF1000F01D04FEA5909C1F80490DFF86A
:100B400014B1DBF818B04FEA1B1000F0080BBBF132
:100B5000000F02D1DFF800C10BE000F0070B0BF132
:100B6000010B4FF0010E0EFA0BF0DFF8ECB0BBFBFF
:100B7000F0FCC1F80CC0DFF8DCB0DBF8180000F0C6
:100B8000080BBBF1000F04D1DFF8CCB0CDF804B0F6
:100B90000DE000F0070B0BF1010B4FF0010E0EFA08
:100BA0000BF0DFF8B4B0BBFBF0FBCDF804B0DDF820
:100BB00004B0C1F810B0DFF89CB0DBF814B00BF053
:100BC000030BBBF1000F06D0BBF1010F05D0BBF149
:100BD000020F06D103E01E4605E02E4603E026463E
:100BE00001E03E4600BF00BFDFF868B0DBF814B09C
:100BF000CBF3011BBBF1000F06D0BBF1010F06D0F8
:100C0000BBF1020F08D105E04FF4004206E049F6BF
:100C1000404203E0324601E0624600BF00BFDFF819
:100C200034B0DBF814B04FEA1B2000F0080BBBF126
:100C3000000F01D1924609E000F0070B0BF1010B08
:100C40004FF0010E0EFA0BF0B2FBF0FAC1F808A05B
:100C5000BDE8FC8F0000024000127A0010B501468A
:100C600001F0E003202B02D1074B1A6801E0074B8B
:100C7000DA6B01F01F040123A34013400BB10120E4
:100C800000E0002010BD00000000024000800D4088
:100C90000D49896821F003010B4A9160012802D0B7
:100CA00002280ED106E00849896841F00101064A90
:100CB000916007E00449896841F00301024A9160AC
:100CC00000E000BF00BF70470000024038B50020C0
:100CD000009000BF2220FFF7C1FF05460098401C8E
:100CE00000900098B0F5C06F01D2002DF2D0222004
:100CF000FFF7B4FF08B1012400E00024204638BD0E
:100D00000149086070470000D807B04338B500209B
:100D1000009000BF1720FFF7A1FF05460098401C78
:100D200000900098B0F5C06F01D2002DF2D01720CE
:100D3000FFF794FF08B1012400E00024204638BDED
:100D400029B1064AD2690243044BDA6104E0034A3E
:100D5000D2698243014BDA61704700000000024013
:100D600000B50120FFF7CCFFFFF7D0FF0020FFF711
:100D70001BFE1648C06800201449C8600846406839
:100D800000204860084680680020886008460069A6
:100D900000200861084640690020486108468069D3
:100DA000002088610A48C8610846006A002008627D
:100DB0000846406A002048620846806A002088622F
:100DC0000846C06A0020C86200BD00000000024062
:100DD000100000087047000010B50221044800F020
:100DE00048F8012803D10221014800F021F810BD84
:100DF00000000A4002460B4BD86A0B4B9A4205D1C1
:100E000040F0807020F0FF00084308E0074B9A4252
:100E100005D140F0007020F47F4040EA0120014BF2
:100E2000D8627047000002400000044000000A4001
:100E3000026A0A430262704721B1426842F002022C
:100E4000426004E042684FF6FD731A40426070470A
:100E50000021016041600161416141620321016241
:100E600070470246D3680B400BB1012000E0002020
:100E700070470246D3690B400BB1012000E000200F
:100E8000704710B54B8803618B790C8803EB042302
:100E9000CC7923440C7A23444C791A1902604B7A9A
:100EA0000C791A19426010BD0146886880B27047FB
:100EB0008160704700210171072141710021C171DA
:100EC00081710172022141800021018041727047CD
:100ED00070B506460C46154601212846FFF730FF3F
:100EE0000748FFF71AFD06490C8000208870087239
:100EF00001208872022048723046FFF76AFC70BDFC
:100F00000001002010B501210348FFF7FEFC01207D
:100F10000249088010BD000000800C403000002015
:100F200010B501210348FFF7F4FC002002490880B6
:100F300010BD000000800C403000002070B5064657
:100F40000C46154601212846FFF7FAFE0848FFF730
:100F5000E4FC07490C800120887000200872012001
:100F60008872022048723046FFF733FC70BD0000E3
:100F7000000100200149886108617047B401002028
:100F800038B50446012C04D0022C12D0042C30D1E8
:100F90001FE00120FFF7B0FB03F022F905460A200D
:100FA00000232A46012100901348006803F03EFC0C
:100FB00020E00220FFF76AFB03F012F905460A2041
:100FC00000232A46012100900C48006803F02EFC03
:100FD00010E00420FFF75AFB03F002F905460A204F
:100FE00000232A46012100900548006803F01EFCFA
:100FF00000E000BF00BF38BD1C0000202000002022
:101000002400002038B504461748006884422AD1DD
:10101000042000F0F1FB1548008810B1012820D110
:1010200016E008211248FFF774FC082000F0E4FBEA
:1010300001200E49088003F0D3F805466420002300
:101040002A46012100900848006803F0EFFB09E000
:1010500000F0D6FD022005490880202000F0CCFBDE
:1010600000E000BF00BF38BD500000205600002047
:1010700000000B4010B504460B480068844203D1C1
:101080000120FFF76DFB0EE008480068844203D1A1
:101090000220FFF765FB06E005480068844202D1A4
:1010A0000420FFF75DFB10BD1C0000202000002085
:1010B0002400002010B50446204601F06BFE10BD50
:1010C00010B50020034908600121024800F016F91C
:1010D00010BD0000008007400348806A20F0010036
:1010E000401C014988627047B401002010B50021FE
:1010F000014800F003F910BD0080074010B500BFA3
:10110000BF2080F31188BFF34F8FBFF36F8F00BFF5
:1011100003F06CF818B14FF080500449086000BF2C
:10112000002080F3118800BF10BD000004ED00E036
:1011300030B5204CE46804F00204022C01D11E48B2
:1011400000E01D481B4CE46804F0010404B14008B1
:101150000146184CE46804F00404042C05D1154C35
:101160006468C4F30324631C5943124CE468C4F359
:10117000012424B1012C06D0022C13D10DE00E4C19
:101180000E4D2C6013E00B4CE468C4F30314641C94
:10119000B1FBF4F2094C226009E04FF40044074D22
:1011A0002C6004E049F64044044D2C6000BF00BFB1
:1011B00030BD00000000024000127A00FC00002058
:1011C00000B510200749C8610020C86048608860E9
:1011D000086148618861086248628862C862FFF7F6
:1011E000A7FF00BD000002400246104B586A104B9A
:1011F0009A4205D120F0FF00084340F0807012E0D1
:101200000C4B9A4206D120F47F4040EA012040F086
:10121000007008E0084B9A4205D120F47F0040EAB4
:10122000014040F08060014B58627047000002406E
:1012300000000740008007400000084070B54D885E
:10124000CE8835440E8935444E8935448E8905EB68
:101250008615CE8935440E8AAC198D880DB104F5FA
:1012600080740A8800F1200545F822404D8ACE8A14
:10127000AB198D8A05B11B1D00F1600545F82230C0
:1012800070BD70B54D882D018E8805EB8605CE8822
:1012900035440E8905EB06354E8905EB86258E898A
:1012A00005EB06230A8800F1300545F822300D8A47
:1012B000CE8905EB06254E8AAC1900F1400545F8AC
:1012C000224070BD002141808180C1800181418127
:1012D0008181C1810182418270470021018041806A
:1012E0008180C180018141818181C18101824182EE
:1012F0008182C1827047CA43426570470A46C1680D
:1013000012B141F0010101E021F00101C16070471B
:1013100030B50C8804604C8844608C888460CC882C
:101320000D892C444D892C448D892C44CD89631919
:10133000C3604C8A0D8A04EB05148D8A2C44CD8A37
:101340006219026530BD0021018041808180C18029
:10135000018141818181C181018241828182C18279
:1013600070470021C160016041608160016241629B
:101370008162C162016341638163C1630166416649
:101380008166C166016141618161C1610167416737
:101390008167C167016441648164C164016541651D
:1013A0008165C165704710B50246936D546D1C4050
:1013B00004EA01030BB9002000E0012010BD10B5C4
:1013C0001346826D0BB10A4300E08A43826510BD6B
:1013D00010B500F1100404EB81031A6010BD7047D2
:1013E00008B50020009002210E48FFF7DCFF01281D
:1013F0000AD102210B48FFF77EFFFFF777FE69460F
:101400000948006802F08DFC00BF009838B14FF029
:10141000805006490860BFF34F8FBFF36F8F00BF46
:1014200008BD0000008007402C00002004ED00E013
:1014300010B5002401210E48FFF7B5FF012816D191
:1014400001210B48FFF757FF01F0ACFB20B101F081
:10145000F3FA0120FFF784F900BF3CB14FF0805050
:1014600004490860BFF34F8FBFF36F8F00BF10BDFB
:101470000000084004ED00E0704700001CB50020AB
:1014800001901021244800F085F8012821D1102175
:10149000214800F067F8204800F0E8F8C0B200905A
:1014A0001E480088012814D1002301AA69461C485F
:1014B000006802F0F1FBFFF703FE00BF019838B1AE
:1014C0004FF0805017490860BFF34F8FBFF36F8F05
:1014D00000BF2021104800F05DF8012803D1202131
:1014E0000D4800F03FF84FF480610B4800F052F8CF
:1014F000012803D18102084800F034F800BF0198A8
:1015000038B14FF0805007490860BFF34F8FBFF3E9
:101510006F8F00BF1CBD0000008003403000002022
:101520003400002004ED00E002460B4B986A0B4BA0
:101530009A4205D140F0807020F0FF00084308E097
:10154000074B9A4205D140F0007020F47F4040EAFA
:101550000120014B986270470000024000000340E8
:1015600000800340426C0A434264704721B1026B21
:1015700042F00102026304E0026B4FF6FE731A4070
:1015800002637047024693690B400BB1012000E0F3
:10159000002070470246136C0B400BB1012000E0A5
:1015A000002070471AB1836B0B43836302E0836BA7
:1015B0008B438363704700002DE9F04F87B00446EA
:1015C0000D4601A8FFF710FA019F2548866A2548B5
:1015D000844206D106F0070101208840B7FBF0F7EE
:1015E00008E02148844205D1C6F302210120884049
:1015F000B7FBF0F728688008B7FBF0F94FEA9918B5
:1016000009F03F0AB8000AEB8811B0FBF1F0069030
:1016100029680698401AC001B0FBF1FBBBF1020F2C
:1016200002DC1BF1020F03DA002007B0BDE8F08FE7
:10163000C4F82480C4F828A0E66AA888E98808438A
:1016400029890843698908430643E662266B4FF6F9
:1016500080708643A889064326630120E5E70000E1
:10166000000002400000034000800340014608687B
:1016700080B27047016070474FF41651016000213D
:101680008180C180018141814FF440718181704727
:101690007047000010B50F48FFF73FF901214806D9
:1016A000FFF74EFB4FF630700A4908800A48FFF7F3
:1016B00090F80120074908808870002008720120F6
:1016C0008872022048720448FFF783F8FFF71AFC7B
:1016D00010BD00001C01002000800C4010B501214D
:1016E0004807FFF72DFB0F48FFF717F900200D49BA
:1016F000C870087148718871C871032008724872F7
:101700000120887200208870012008800648FFF7B9
:1017100060F8012003498870022008800248FFF722
:1017200058F810BD1C01002000800E4010B50121AA
:10173000C803FFF705FB1848FFF713FE07211648FB
:10174000FFF752FD1548FFF7FEFD132013494880AF
:101750000A2088800020C880088148818881C8814B
:10176000088248828882C8820B48FFF7D1FD0F208B
:10177000012181404209920002F1E022C2F80011E9
:1017800000BF012202210448FFF719FE0021024890
:10179000FFF7B4FD10BD00000080074028010020C5
:1017A00000BFFEE77047000007490968491C064A68
:1017B0001160064909680902044A11601146096866
:1017C0000143116070470000580000205C000020B9
:1017D00007490968491C064A116006490968090257
:1017E000044A116011460968014311607047000006
:1017F0004000002044000020024909680143014ADA
:1018000011607047480000202DE9FC5F2F49086BEC
:1018100003F0C7F9824652460B4600204FF0804144
:1018200003F03AF8804601F0E9FA06460022284B18
:1018300003F0CAF9044603F087F9244948630846CF
:10184000406B0121C1EB40000521B0FBF1F01F49C5
:10185000496B0C1A204603F0A4F905461D4A1E4B9D
:1018600003F0B2F9074603F06FF918498863084698
:10187000406B40000521B0FBF1F0184908601348A7
:10188000C06C1249C96CA0FB0110CDE900100F48D3
:10189000006B440022460023DDE90001FEF7CAFC8C
:1018A0000A4908650846006BC96B44180748C06CB4
:1018B0000649C96BA0FB0150014622460023284679
:1018C000FEF7B8FC01494865BDE8FC9FB401002063
:1018D00080842E416F1283C0CAA1E53F880000209A
:1018E00010B504E00548FFF7DFFA044600BF042105
:1018F0000248FFF7B6FA0128F4D010BD00000A40F4
:101900000148006B70470000B4010020014611B986
:101910000248406B70470148806BFBE7B401002030
:1019200007490968090E017005490968090C4170E9
:1019300003490988090A817001490978C170704713
:101940004000002070B51248FEF7DCFF0446E0437B
:10195000C4B21048FEF7D6FF05464FF4F06020EA07
:10196000050505F4806008B144F4807405F4007046
:1019700008B144F4007405F4807008B144F4806444
:1019800005F0800008B144F40064A0B270BD00000E
:1019900000800A4000000B4007490968090E0170E9
:1019A00005490968090C417003490988090A8170D1
:1019B00001490978C170704744000020014621B1F7
:1019C000012905D0022909D105E006484068704781
:1019D00004488068FBE70348C068F8E701484068AE
:1019E000F5E70000B401002010B50548FEF78AFFB6
:1019F00000F0C800034908600846006810BD0000F8
:101A000000800C407C00002070B504460025104882
:101A10000068D0B1691E0E48006802F041FA012842
:101A200013D1D02001F056F9002001F053F9002025
:101A300001F050F9204601F063F8054600231A46EC
:101A400019460348006802F09BF8284670BD000064
:101A50006000002007490968090E017005490968FE
:101A6000090C417003490988090A81700149097804
:101A7000C1707047480000200148C06C70470000EA
:101A8000B40100200148006C70470000B401002040
:101A900010B5044601210C4801770C480A498861B9
:101AA000012109480175094807490861002081F8AA
:101AB0002C0007490860C82001F01AF9C82101FA72
:101AC00004F001F01FF910BDB4010020A086010050
:101AD0008800002010B5FEF771FF0120FFF710F914
:101AE000FFF714F901281DD1FFF7D2F8FFF7EEF840
:101AF000012819D109210220FEF724FF0120FEF759
:101B00001BFFFFF7E3F801280AD10020FEF740FF92
:101B10000120FEF737FF4FF48070FEF745FF03E02A
:101B2000002010BD0020FCE70120FAE710B54FF4BB
:101B30000012FF211048FFF7CBF94FF480024FF459
:101B4000F0610E48FFF7C4F94FF0007208210C480D
:101B5000FFF7BEF94FF0007280210948FFF7B8F98E
:101B60004FF0007240210648FFF7B2F90020054906
:101B700008600549086010BD00800A4000000B4065
:101B800000800C40780000207C00002038B504461E
:101B90000D460120FFF730FE00F062F800F08EF9EC
:101BA00000200D4908600D4908600D4805700D487A
:101BB000047000200C4908800C4800231A4632218A
:101BC00000900BA002F0F6FD0C49086000F0B2FF97
:101BD0000220FFF711FE38BD400000204400002025
:101BE0004C0000204D000020560000200510000889
:101BF0005273744C3634373000000000500000201F
:101C00001CB5144800780190012201A9092001F0B7
:101C1000E9FE012201A90A2001F0E4FE012201A946
:101C20000B2001F0DFFE012201A90C2001F0DAFEF9
:101C300009480078009001226946162001F0D2FE82
:101C400001200649087001F02DF91020FFF7D4FD9E
:101C50001CBD00004C0000204D000020540000205E
:101C600010B501218805FFF76BF82148FEF755FEF6
:101C700000201F49C870087148718871C8710872C6
:101C80000320487201208872887008200880194853
:101C9000FEF79FFD01218805FFF752F80120144946
:101CA000C87000208870042008801248FEF791FD5B
:101CB00001218805FFF744F800200D49C87088709D
:101CC000012008800B48FEF784FD01218805FFF7FD
:101CD00037F800200649C87088700220088005483F
:101CE000FEF777FD08210348FEF713FE10BD000044
:101CF0005601002000000B4010B501218805FFF7B8
:101D00001FF80848FEF709FE0320064908724872CA
:101D1000012088728870202008800348FEF759FD52
:101D200010BD00006201002000000B400149086066
:101D3000704700007400002010B500F003F800F0B8
:101D400087F810BD10B50121C805FEF7F9FF1C4842
:101D5000FEF7E3FD03201A490872487201208872D9
:101D6000887008801748FEF734FD01210806FEF749
:101D7000E7FF022012490872012088704020088085
:101D80001148FEF726FD01210806FEF7D9FF0220C3
:101D90000B49087201208870202008800A48FEF74D
:101DA00018FD0121C805FEF7CBFF03200449087286
:101DB00000208870042008800248FEF70AFD10BD4C
:101DC0004A01002000800B4000000C401CB5FFF7CA
:101DD000B3FF03220021012001F05BFE17490860D8
:101DE0000846006830B100231A46194613480068B7
:101DF00001F0C6FE11480068E0B10020052103464D
:101E00008222CDE900100EA10F4802F0A9F90128A5
:101E100002D00120FFF7C8FC00220121322001F08E
:101E200038FE0A4908600846006830B90320FFF709
:101E3000BBFC02E00220FFF7B7FC1CBD60000020E5
:101E400053656E6453706900794700086400002090
:101E500010B501210805FEF773FF1648FEF7F8FFDD
:101E600001211448FEF7C6FF1348FFF723F80220AC
:101E7000114908800520488000200871072048711A
:101E8000802088714020C8710020087202204872AA
:101E90000848FEF7F6FF01210648FEF7CDFF1420A3
:101EA000012181404209920002F1E022C2F80011B2
:101EB00000BF10BD00000A404001002010B5002006
:101EC00035490880FFF718FF01210804FEF738FFA5
:101ED0003248FFF746FA01213048FFF785F93048CC
:101EE000FFF731FA27202E4948804FF6FF7088808F
:101EF0000020C88008200881002048818881C8818E
:101F0000088248828882C8822448FFF701FA25485F
:101F1000FFF7E3F90020234948804FF4007048811F
:101F200002200880002088821C48FFF787F90122E0
:101F300002211A48FFF74CFA1B48FFF7C3F90020AB
:101F400019494880022088800120C880002008812B
:101F50000220488101208881022008800F48FFF775
:101F600090F91020012181404209920002F1E02203
:101F7000C2F8001100BF01210848FFF7BCF9012297
:101F800011460648FFF71BFA012004498861002129
:101F90000248FFF7B3F910BD6800002000000840B8
:101FA0006E0100209A010020860100201CB5FFF779
:101FB00007F9FFF78FFDFEF77FFA01202849088017
:101FC000FEF7F8FA012802D00020254908804FF4D6
:101FD000E13001F0FDFF234908600846006810B9B0
:101FE00000201F490880FEF795FA1F490860FEF798
:101FF00095FA1E490860FEF795FA1D490860FFF73B
:10200000E5FE1C210520FFF7C1FD0520FFF740FD7F
:10201000FEF78CFA0446FFF789FEFFF787FD0020E4
:10202000022103464FF48272CDE9001011A1144839
:1020300002F096F8012802D00020094908800848DB
:102040000088012801D101F059FC0120FEF754FB62
:102050000220FEF751FB0420FEF74EFB00201CBDC2
:102060000200002004000020080000200C000020D6
:10207000100000204F626D656E55617274000000A3
:10208000952F00082DE9F04105460E4626480768C1
:1020900026480068001D00F035FF50B9234800684D
:1020A00090F82C100120884021490968814320487C
:1020B0000160681CD8B9D6B11E4948681B49096837
:1020C00088601A4982680968CA6018490968091D48
:1020D0008268516015490968091D8160154A1349D4
:1020E00009684A6111460968491C11601AE07C19A7
:1020F0000E4800684460BC4207D20C480168091DC4
:102100000D48006800F02BFF0CE008480168091D2D
:102110000A48006800F023FF09480068844201D2A1
:1021200007480460BDE8F081A00000208C0000207A
:10213000A4000020DC020020940000209000002079
:10214000BC00002010B5044601F084FA2F48006856
:10215000401C2E4908602E48006840B92C48046095
:102160000846006801280DD100F0CCF90AE02948A2
:10217000006838B926480068C06AE16A884201D818
:102180002348046024480068401C2349086094F8F0
:102190002C10012088402149096808431F49086024
:1021A000E16A01EB81011E4A02EB81014868A060EF
:1021B0008268E260211D826851608160E16A01EB02
:1021C0008101174A02EB81026261E16A01EB810140
:1021D000134A52F82110491CE26A02EB8202104BAA
:1021E00043F8221001F048FA0A48006868B108482C
:1021F0000068C06AE16A884207D24FF080500949FE
:102200000860BFF34F8FBFF36F8F10BD9C0000209D
:102210008C000020A8000020B8000020A4000020AE
:102220002802002004ED00E010B501F013FA0C487C
:10223000006890B90B4800F082FE0B4800F07FFE6A
:1022400008480A49086008480949086000220C212A
:102250000A2001F01EFC0249086001F00DFA10BDD1
:10226000D4000020F002002004030020CC00002055
:10227000D000002010B516E001F0ECF90C48C06861
:10228000C468201D00F03EFE0A480068401E09494F
:10229000086009480068401E0749086001F0ECF931
:1022A000204600F05FF8044800680028E4D110BD23
:1022B000C80200209C0000209800002070B5044651
:1022C0000D46206C70B1216CE0680144E160D4E9F6
:1022D0000210884201D32168E1602846226CE1683F
:1022E000FEF71FF870BD2DE9F04104460F46154674
:1022F0004FF00008A66B206C48B9206800282CD14C
:10230000A06802F03BF880460020A06025E07DB97F
:102310003946226C6068FEF704F8216C6068084456
:102320006060D4E90101884217D32068606014E03E
:102330003946226CE068FDF7F4FF216CE068411A31
:10234000E1602168E068884203D2216CA068411AEC
:10235000E160022D01D106B1761E701CA0634046DB
:10236000BDE8F08110B50446206B01F095F92046D8
:1023700001F092F910BD01464A6A22B10A6B126857
:10238000C2F1050000E00020704700000146084A45
:10239000126812680AB9012200E000220A600A6885
:1023A00022B9034A1268D268106800E00020704722
:1023B000CC0000200A4A22F007000A4A10600022DE
:1023C000084B5A6044F2F832074B5A6000221A60F8
:1023D000014644F2F8324A601A460A60704700002B
:1023E0001F030020E4000020EC00002000BFFFF7E6
:1023F00041FF064800680128F9D94FF08050044990
:102400000860BFF34F8FBFF36F8FF0E72802002003
:1024100004ED00E02DE9F04106460D4617469846CA
:10242000069C0DB9246000E02760E6632564012165
:10243000204601F055FBBDE8F0812DE9FF5F8046A5
:102440000E469146DDE90E7A109CA9F10100216B40
:1024500001EB800B2BF0070B86B1002507E0715DC7
:1024600004F134004155705D00B902E06D1C102D7F
:10247000F5D300BF00214320015502E0002084F87D
:102480003400052F00D30427E76267640020A064AE
:10249000201D00F061FD04F1180000F05DFD2461D5
:1024A000C7F10500A06164620020E06484F8500078
:1024B00041465846039A00F0ADFA2060BAF1000F89
:1024C00001D0CAF80040BDE8FF9F2DE9F04705465E
:1024D0000E4617469846DDE90894FFF7A5FE2560ED
:1024E000A661C4F81C80C4F82090201D00F034FDC3
:1024F0002FB194F8240040F0040084F82400BDE8D3
:10250000F087000010B5002407E004EB84010F4AB7
:1025100002EB810000F013FD641C052CF5D30C4880
:1025200000F00DFD0B4800F00AFD0B4800F007FD20
:102530000A4800F004FD0A4800F001FD044809497A
:10254000086004480849086010BD00002802002007
:102550008C020020A0020020B4020020C80200204B
:10256000DC02002090000020940000202DE9F041C2
:1025700004460D4616461F464FF00008656024616C
:10258000B5420CD8F01BA169884202D34FF0010874
:1025900011E0211D0948006800F0E1FC0BE0BE429B
:1025A00004D2BD4202D34FF0010804E0211D0448CB
:1025B000006800F0D4FC4046BDE8F081D000002067
:1025C000CC00002070B5054601F044F8A86B08B9AE
:1025D000012400E0002401F04FF8204670BD70B5E2
:1025E000054601F037F8A86BE96B884201D1012458
:1025F00000E0002401F040F8204670BD70B50546AB
:102600000E460E480068C068C468201D00F07AFCC1
:1026100094F8240000F0040028B1324629462046F0
:1026200000F0C4F805E094F8240000F0FE0084F8FF
:1026300024002046216A884770BD0000CC0000209D
:102640007FB56EE0019800286BDB039C606908B9D8
:10265000012000E0002010B9201D00F053FC684666
:1026600000F0D0F8054601980A2858D2DFE800F0BB
:102670005705072E364706082F3700BF00BF00BF9B
:1026800094F8240040F0010084F824000298A26924
:10269000811803462A462046FFF768FFA8B194F840
:1026A000240000F0040038B10298A26981182A467B
:1026B000204600F07BF805E094F8240000F0FE00CE
:1026C00084F824002046216A884729E000BF94F856
:1026D000240000F0FE0084F8240021E000BF94F8FC
:1026E000240040F0010084F824000298A061A06951
:1026F00041192B462A462046FFF738FF10E094F890
:10270000240000F0020018B9204600F0C5FF05E0E3
:1027100094F8240000F0FE0084F8240000E000BFDC
:1027200000BF002201A90348006801F037FB002820
:1027300088D17FBDD4000020F8B505460C4601F0D5
:1027400019F9684600F05EF80646009820BB44B9C7
:10275000B54206D801F062FF31462846FFF74EFF2A
:102760001CE03CB10E480068006808B9012000E098
:1027700000200446A91B22460A48006800F0B8FF62
:1027800001F04CFF50B94FF0805007490860BFF38B
:102790004F8FBFF36F8F01E001F040FFF8BD0000E5
:1027A000D0000020D400002004ED00E070B5044605
:1027B0000D46164604E0A06905442046216A884774
:1027C000A06941192B4632462046FFF7CFFE00286C
:1027D000F1D170BD09480068006808B9012000E027
:1027E000002020B14FF0FF300549086005E00348A4
:1027F0000068C068006802490860704790000020C7
:10280000BC00002070B5044601F0EAFC054607480C
:102810000068854204D200F00BF80120206001E03E
:102820000020206001480560284670BDDC000020C3
:1028300070B508E00D480068C06804684FF0FF31CB
:102840002046FFF7DBFE09480068006808B9012050
:1028500000E000200028EDD0044805680448006826
:10286000024908600248056070BD0000CC000020ED
:10287000D000002000BFBF2080F31188BFF34F8F2E
:10288000BFF36F8F00BF00BFFEE708B500BF68460B
:10289000FFF77CFD044620460099FFF74DFFFFF748
:1028A000CFFEF4E770B5044600F0D4FE94F945502D
:1028B00010E0606A08B9012000E0002038B904F196
:1028C000240001F027FE18B100F072FF00E003E0E1
:1028D000681E45B2002DECDC00BFFF2084F84500E7
:1028E00000F0CAFE00F0B6FE94F9445010E02069F2
:1028F00008B9012000E0002048B904F1100001F0FF
:1029000009FE08B100F054FF681E45B200E001E086
:10291000002DECDC00BFFF2084F8440000F0ACFE8A
:1029200070BD00002DE9F04104464FF0000801F0B1
:1029300021F82C48006820B9FFF73CFD0120294907
:1029400008609CB104F10800A0420FD9083404F0DB
:102950000700C0F108002044A04205D904F0070098
:10296000C0F10800044402E0002400E00024002C30
:1029700032D01D48006884422ED81C4F3846056866
:1029800001E02F462D686868A04202D2286800281E
:10299000F7D1174885421FD0386800F10808286829
:1029A00038606868001B102810D92E196868001B51
:1029B00070606C6071680D4800E0006802685268E1
:1029C0008A42FAD302683260066000BF064968682E
:1029D0000968081A0449086001F020FE4046BDE875
:1029E000F0810000F8000020F4000020E400002046
:1029F000EC0000200648006830B10549096801F183
:102A00004800896C491C016001480068704700005B
:102A10008C000020001F4FF080730360001F21F026
:102A200001030360001F034B036014380260203869
:102A3000704700007528000810B51748007F01286E
:102A400005D115484068401C1349486004E012480D
:102A50004068401E104948600F4840680E49896828
:102A6000884207D100F03EFA00200B4981F82C0083
:102A70000A490860084890F82C0058B9064890F8B0
:102A80002800C0F3400028B10348806A20F002000B
:102A90000149886210BD0000B401002088000020B8
:102AA00070B504460D4600261448006818B3711E20
:102AB0001248006801F0F4F901281CD1FEF710FF5C
:102AC00044F0200000F006F9002000F003F9002097
:102AD00000F000F9002000F0FDF80220FDF740FEB4
:102AE000284600F00DF8064600231A46194603480A
:102AF000006801F045F8304670BD0000600000201D
:102B000010B5044609E00948FEF7CEF92070641CB0
:102B100007480068401C0649086004210348FEF786
:102B2000A0F90128EFD00248007810BD00000A404B
:102B30003C00002038B508210A48FDF7E6FE01F008
:102B40004FFB0446642000232246012100900648E2
:102B5000006801F06BFE012802D00120FEF738FE6C
:102B600038BD000000000B405000002010B50024CC
:102B70000B48006888B1611E0948006801F090F9AF
:102B800001280AD1C02000F0A5F800231A461946F2
:102B90000348006800F0F4FF0124204610BD000047
:102BA0006000002010B51D48006880696FF30F00B9
:102BB000C8B11A4800688069A0F5803017490968D3
:102BC000886100211648FEF799FB4FF6FF70144903
:102BD000886101211248FEF791FB4FF6FE70104903
:102BE0008860002010BD00210D48FEF787FB012002
:102BF0000B49886101210A48FEF780FB07480068FD
:102C0000008B80B2064988600448006803490A685E
:102C1000D2E90412C0E906120120E3E774000020A3
:102C20000000084070B504460025FEF779F92146FA
:102C30000A48FEF71FFD00BF80210848FEF7A2FCEE
:102C40000128F9D100BF0548806900F0080000287C
:102C5000F9D10125FEF756F9284670BD00800340E2
:102C600037B515460E49096800231A4608686946B3
:102C700000F086FF0A49096800231A46086801A97E
:102C800000F07EFF002408E02919054A126800239D
:102C900010681A4600F074FF641C042CF4DB3EBD7F
:102CA0001000002010B504460020084908600221E9
:102CB0000748FEF7D6F8012805D121460448FEF75B
:102CC000F7F8012010BD0020FCE700003C000020C8
:102CD00000000A4038B50446009400235A1E694695
:102CE0000248006800F04CFF38BD0000640000207E
:102CF00010B5044602480463C463FEF785FD10BDA9
:102D0000B40100202DE9F04782460D48C0F84CA0E0
:102D1000504601F046FF064632460B460020094960
:102D200001F0BAFD04460022074B01F04DFF80463A
:102D300001F00AFF02494864FEF766FDBDE8F0872E
:102D4000B40100200000F03F80842E412DE9F047BF
:102D500082460D48C0F848A0504601F022FF0646C2
:102D600032460B460020094901F096FD0446002238
:102D7000074B01F029FF804601F0E6FE0249086496
:102D8000FEF742FDBDE8F087B40100200000F03FEF
:102D900080842E4110B50446174890F82C00F8B9ED
:102DA000154884604068A04208DA1348007F012873
:102DB0000BD0012110480177017506E00E48007F15
:102DC00018B100210C48017701750B48406B0A4986
:102DD00088610846406B0861087F00F063F807E0EF
:102DE0000548C460806A20F00200801C02498862A5
:102DF00000F02AF810BD0000B40100202DE9F041D8
:102E000006460F4601F0DEFF041E0D4618BF0120E6
:102E1000284320F00040C0F17F6000F1E040C00F87
:102E20000ED0301C18BF0120384320F00040C0F104
:102E30007F6000F1E040C00F04BF0120FDF7BEFA43
:102E400020462946BDE8F08110B500210648FEF76E
:102E500055FA0120044988610220086001210248D6
:102E6000FEF74CFA10BD00000000084010B5044603
:102E700094B10A4800688461084800680461002130
:102E80000748FEF73BFA01200549886102200860E7
:102E900001210348FEF732FA10BD00007400002043
:102EA0000000084070B5044600250D480068A0B138
:102EB000691E0B48006800F0F3FF01280DD104F0F3
:102EC000010141F05800FFF705FF00231A4619469B
:102ED0000348006800F054FE0125284670BD00003C
:102EE0006000002010B500210148FEF707FA10BD70
:102EF000000008400A0E02700A0C42700A0A827032
:102F0000C170704701460A69D1E901309860D1E982
:102F1000010358605068884201D1886850600020E1
:102F200008611068401E10601068704770B5044654
:102F300000F090FBA56B00F09FFB284670BD00F1F0
:102F4000080141604FF0FF31816000F10801C1606C
:102F5000016100210160704700210161704710B5D7
:102F600002460B685C1C0CB9106907E002F108000E
:102F700000E04068446824689C42FAD944684C6088
:102F80004C68A160886041600A611468641C146028
:102F900010BD000086B000200490059000BFFE49DF
:102FA000096808684FF0FF3100F07AFF2BE3002436
:102FB0000CE0FA4909684FF0FF32086803A900F0F5
:102FC000EDFE9DF80C0004A90855641C062CF0DBEE
:102FD0009DF8100039287CD19DF81100602879D027
:102FE0001DDC482877D00DDCA0F139000F2841D234
:102FF000DFE800F0404040404040404191AABCCE54
:10300000DDE9FD0050381028F1D2DFE800F0EFEEE6
:10301000EDECEBEA33E9E8333333333333E7742849
:1030200072D014DC652870D008DC61286ED062286C
:103030006DD063286CD064281CD1C9E1662868D0A3
:10304000702867D0712878D07228F5D116E28328CD
:1030500074D008DC752872D0802871D0812870D097
:103060008228E9D176E284286CD085286BD0862826
:10307000E2D1B1E2B8E20220FDF782FF0020029027
:103080009DF8120002A9FFF70BFD00283BDD092087
:10309000019002200090C249096800231A4608687E
:1030A00001A900F06DFDBE49096800231A460868B1
:1030B000694600F065FDBA49096800231A460868A8
:1030C00002A900F05DFDB649096800231A460868A8
:1030D00002E08AE21CE1A4E00DF1090100F050FDDC
:1030E000AF49096800231A4608680DF10A0100F08B
:1030F00047FDAB49096800231A4608680DF10B012A
:1031000000F03EFD00BF6FE2D2E171E116E12FE178
:1031100054E17DE189E10220FDF732FF9DF81200C4
:1031200001220DF1130100F05DFC0DF112024121AD
:103130009C480078FFF794FD56E290E11AE2D1E155
:10314000EAE1FCE128E237E20220FDF719FF9DF8F1
:10315000120002220DF1130100F044FC0DF11202E5
:10316000422190480078FFF77BFD3DE20220FDF709
:1031700007FF9DF8120003220DF1130100F032FC4D
:103180000DF11202432187480078FFF769FD2BE219
:103190000220FDF7F5FE0DF11200FEF735FC0DF1F2
:1031A000120244217F480078FFF75AFD1CE29DF887
:1031B0001500FFF777FE0DF11202452179480078DE
:1031C000FFF74EFD10E2FFF7D1FC0DF11202462190
:1031D00074480078FFF744FD06E208E090E07DE0E7
:1031E00070E063E056E049E03EE02FE023E09DF828
:1031F000120000069DF8131040EA01409DF81410DB
:1032000040EA01209DF8151040EA01042046FFF72E
:103210002DFE0DF11202472162480078FFF720FDD4
:10322000E2E1FFF75FFE0DF1120248215D480078F0
:10323000FFF716FDD8E10120FFF734FE0DF1120271
:10324000502158480078FFF70BFDCDE101220DF128
:103250001201162000F0C6FB0DF112025121514857
:103260000078FFF7FDFCBFE1FEF7CAFC0DF112028A
:1032700052214C480078FFF7F3FCB5E10DF1120044
:10328000FEF78AFB0DF11202532146480078FFF742
:10329000E7FCA9E10DF11200FEF742FB0DF112026D
:1032A000542140480078FFF7DBFC9DE10DF112004E
:1032B000FEF7D0FB0DF1120255213A480078FFF7D6
:1032C000CFFC91E14FF6FF70FFF7D0FD0DF1120238
:1032D000572134480078FFF7C3FC85E19DF81500BD
:1032E000FEF76CFB044621460DF11200FFF702FECB
:1032F0000DF1120258212B480078FFF7B1FC73E161
:103300000DF112025F2127480078FFF7A9FC6BE15D
:1033100025480468200E8DF81200200C8DF813004B
:10332000200A8DF81400E0B28DF815000DF112029C
:1033300060211C480078FFF793FC55E19DF81200CE
:1033400000069DF8131040EA01409DF8141040EA71
:1033500001209DF8151040EA01042046FDF7AAFE61
:103360000DF1120261210F480078FFF779FC3BE173
:103370009DF8120000069DF8131040EA01409DF8E8
:10338000141040EA01209DF8151040EA010420467F
:10339000FDF790FE0AE00000080000200C0000206D
:1033A000100000200000002000ED00E00DF11202EE
:1033B0006221A3480078FFF753FC15E1FDF78CFE6E
:1033C0000DF1120263219E480078FFF749FC0BE1E2
:1033D000FEF7B8FA044621460DF11200FFF78AFD08
:1033E0000DF11202642196480078FFF739FCFBE0EA
:1033F000FEF7FAFA044621460DF11200FFF77AFDB6
:103400000DF1120265218E480078FFF729FCEBE0F0
:103410008C490DF11200FFF76DFD0DF112026621CE
:1034200087480078FFF71CFCDEE09DF812000006DC
:103430009DF8131040EA01409DF8141040EA012065
:103440009DF8151040EA01042046FDF793FD0DF1AB
:10345000120270217A480078FFF702FCC4E09DF860
:10346000151001F007001C21FEF790FB0DF1120270
:10347000712173480078FFF7F3FBB5E09DF8120067
:1034800000069DF8131040EA01409DF8141040EA30
:1034900001209DF8151040EA01042046FFF728FCA2
:1034A0000DF11202722166480078FFF7D9FB9BE00C
:1034B0009DF8120000069DF8131040EA01409DF8A7
:1034C000141040EA01209DF8151040EA010420463E
:1034D000FFF718FC0DF11202742159480078FFF72C
:1034E000BFFB81E09DF8120000069DF8131040EA32
:1034F00001409DF8141040EA01209DF8151040EAA3
:1035000001042046FFF722FC0DF1120275214C4800
:103510000078FFF7A5FB67E09DF815402046FDF712
:1035200009F8054629460DF11200FFF7E3FC0DF1FD
:103530001202802142480078FFF792FB54E002A972
:103540001620FFF7ADFA02AA81213D480078FFF767
:1035500087FB49E0FEF7D4F9044621460DF112003D
:10356000FFF7C8FC0DF11202822135480078FFF701
:1035700077FB39E09DF81500FEF7C8F904462146AF
:103580000DF11200FFF7B6FC0DF1120283212C4859
:103590000078FFF765FB27E0FEF76EFA0446214648
:1035A0000DF11200FFF7A6FC0DF112028421244850
:1035B0000078FFF755FB17E0FEF764FA0446214652
:1035C0000DF11200FFF796FC0DF1120285211C4847
:1035D0000078FFF745FB07E00DF11202862118483D
:1035E0000078FFF73DFB00BF0DE0002409E004AACE
:1035F0001119154A1268002310681A4600F0C0FA23
:10360000641C062CF3DB114909680868FFF78EFC7F
:103610000628BFF4CCAC0D4909680868FFF786FCA2
:1036200028B10A4909680868002100F059FA4FF0EA
:10363000805007490860BFF34F8FBFF36F8FAEE430
:103640000000002078563412100000200C000020EA
:1036500004ED00E000BFBF2080F31188BFF34F8F5F
:10366000BFF36F8F00BF03480068401C014908602A
:1036700070470000E000002006480068401E054931
:1036800008600846006820B9002080F3118800BF58
:1036900000BF7047E000002070B506463546B6B161
:1036A000083D2C4600F066F96168094800E00068B2
:1036B000026852688A42FAD30268226004600549AF
:1036C0006068096808440349086000F0A7FF70BDFE
:1036D000E4000020F400002000204FF0E021086109
:1036E0008861024848610720086170477F380100FF
:1036F0002DE9F04105460E4617462C46FFF7AAFF76
:1037000094F94400401C10B9002084F8440094F956
:103710004500401C10B9002084F84500FFF7ACFFBD
:10372000A06B28B93A46314604F1240000F056F85F
:103730002046FFF7B7F8BDE8F081000008B500BFEC
:103740000020009012480068FFF7F0FB062815D310
:10375000062410E0641E4FF0FF3269460C480068F2
:1037600000F01CFB012806D19DF80000FFF75AFA73
:103770000420FDF705FC002CECDC00BF4FF080506E
:1037800004490860BFF34F8FBFF36F8FD8E7000085
:103790003800002004ED00E0034909680160034996
:1037A0000968416070470000B4000020A0000020BC
:1037B0000120014908607047B000002070B505463F
:1037C0000C460548016818312846FFF7C8FB01215F
:1037D0002046FEF757FC70BD8C00002070B50446F3
:1037E0000E46154660680F490968C8610D49826830
:1037F00009680A620B4909681831826851600949F1
:10380000096818318160074909688C622168491C80
:1038100021600DB14FF0FF3629463046FEF732FCED
:1038200070BD00008C0000202DE9F04706460F46D1
:1038300034464FF00109002E5AD0606CB84201D2D4
:103840003D4600E0656CE06AA84251D0A06C0128BA
:103850004ED1D4F82C80E562A06900F0004010B988
:10386000C5F10500A06108EB8801224A02EB810145
:103870006069884201D1012000E00020C0B3201D12
:10388000FFF740FB40B994F82C10012088401A49FA
:10389000096881431848016094F82C100120884081
:1038A00015490968084314490860E16A01EB810180
:1038B000104A02EB81014868A0608268E260211D25
:1038C000826851608160E16A01EB8101094A02EB83
:1038D00081026261E16A01EB8101064A52F821101E
:1038E000491CE26A02EB8202024B43F8221000BF3D
:1038F000BDE8F08728020020A40000201CB5154870
:1039000000210B468222CDE9001013A1144800F0DB
:1039100027FC0446012C02D100F068FF0446012C6C
:1039200014D100BFBF2080F31188BFF34F8FBFF3C6
:103930006F8F00BF4FF0FF300A49086001200A492D
:10394000086000200949086000F078F8084800681D
:103950001CBD0000C000002049444C450000000090
:10396000ED230008BC000020A8000020A0000020DB
:10397000C400002002480068401C014908607047EC
:10398000C80000201248006818B1012011490860E1
:103990001DE000200F4908600F480068B0FA80F071
:1039A000C0F11F0101EB81020C4B03EB8200426866
:1039B0005268426000F108024368934202D14268B3
:1039C000526842604268D268054B1A6000BF704777
:1039D000C8000020B0000020A40000202802002021
:1039E0008C0000202DE9F04107460D4616464FF0A9
:1039F000000811480068E0B14FF0FF310E48006840
:103A000000F04EFA012814D13846FFF763F900247C
:103A100004E0285DFFF75EF9601C84B2B442F8DB75
:103A2000A04600231A4619460348006800F0A8F88B
:103A300000BF4046BDE8F0816000002010B50A4894
:103A4000006840F47F00084908600846006840F0BC
:103A50007F400860FFF740FE002004490860FCF743
:103A60008FFB002010BD000020ED00E0E0000020F2
:103A700070B504460E4600254CB1A64207D8022276
:103A80000021204600F005F8054605B1AE63284642
:103A900070BD2DE9F84304460E4617460025DCB1FB
:103AA000681EB0FBF4F0B04216D304FB06F010F130
:103AB000490F11D804FB06F909F14800FEF732FF5F
:103AC00005464DB1A84608F148083B4642463146F6
:103AD00020460095FEF79EFC2846BDE8F8830000CE
:103AE0002DE9F04105460E4601272C46002C41D019
:103AF000E06B00283ED0B91EE06BB1FBF0F0216C0A
:103B0000884237D3FFF7A6FDD4E90F12206801FBE6
:103B10000200A0600020A06320686060E06B401E8F
:103B2000226C216800FB0211E160FF2084F8440050
:103B300084F845009EB9206908B9012000E0002002
:103B4000A8B904F1100000F0E5FC80B14FF08050FE
:103B50000A490860BFF34F8FBFF36F8F07E004F18E
:103B60001000FFF7ECF904F12400FFF7E8F9FFF784
:103B700083FD00E000273846BDE8F08104ED00E059
:103B80002DE9FF4383B0074688461D464FF00009E4
:103B90003C4600BFFFF75EFDA06BE16B884201D39E
:103BA000022D28D12A4641462046FEF79CFB0646B8
:103BB000606A08B9012000E0002068B904F124001F
:103BC00000F0A8FC88B14FF0805032490860BFF384
:103BD0004F8FBFF36F8F08E03EB14FF080502D49FB
:103BE0000860BFF34F8FBFF36F8FFFF745FD0120D4
:103BF00007B0BDE8F083059818B9FFF73DFD002038
:103C0000F6E7B9F1000F04D101A8FFF7C5FD4FF0A9
:103C10000109FFF731FDFFF7ADFEFFF71BFD94F93A
:103C20004400401C10B9002084F8440094F9450079
:103C3000401C10B9002084F84500FFF71DFD05A9C0
:103C400001A800F05DFAF0B92046FEF7C8FCA0B16B
:103C500004F110000599FFF7B1FD2046FEF722FEA2
:103C600000F0DCFC002895D14FF080500949086035
:103C7000BFF34F8FBFF36F8F8CE72046FEF712FE26
:103C800000F0CCFC86E72046FEF70CFE00F0C6FCF8
:103C90000020ADE704ED00E02DE9F84F05468A4627
:103CA00016461F462C4600BFBF21EFF3118081F35B
:103CB0001188BFF34F8FBFF36F8F00BF8146A06B9A
:103CC000E16B884201D3022F22D194F945B0A06B59
:103CD00000903A4651462046FEF705FB0BF10100E5
:103CE00070B9606A08B9012000E0002038B904F119
:103CF000240000F00FFC10B10EB10120306004E090
:103D00000BF1010040B284F845004FF0010801E0DA
:103D10004FF0000800BF89F3118800BF4046BDE89E
:103D2000F88F2DE9F04705460E462C4600BFBF210F
:103D3000EFF3118081F31188BFF34F8FBFF36F8FC3
:103D400000BF8046D4F83890E06B48451DD994F9FF
:103D500045A009F10100A0630AF1010070B9606A91
:103D600008B9012000E0002068B904F1240000F047
:103D7000D1FB40B13EB10120306004E00AF1010006
:103D800040B284F84500012700E0002700BF88F317
:103D9000118800BF3846BDE8F08700002DE9F741E3
:103DA00083B005460F464FF000082C4600BFFFF7D2
:103DB00051FCA66BF6B139462046FEF77FFA701E1D
:103DC000A063206908B9012000E0002060B904F177
:103DD000100000F09FFB38B14FF080502F49086071
:103DE000BFF34F8FBFF36F8FFFF746FC012006B084
:103DF000BDE8F081059818B9FFF73EFC0020F6E712
:103E0000B8F1000F04D101A8FFF7C6FC4FF001087C
:103E1000FFF732FCFFF7AEFDFFF71CFC94F94400FE
:103E2000401C10B9002084F8440094F94500401C5F
:103E300010B9002084F84500FFF71EFC05A901A871
:103E400000F05EF9F0B92046FEF7BCFBA0B104F12A
:103E500024000599FFF7B2FC2046FEF723FD00F091
:103E6000DDFB0028A3D14FF080500C490860BFF360
:103E70004F8FBFF36F8F9AE72046FEF713FD00F0D8
:103E8000CDFB94E72046FEF70DFD00F0C7FB204672
:103E9000FEF798FB00288AD00020A8E704ED00E098
:103EA0002DE9F34182B0054600272C46B84600BFF5
:103EB000FFF7D0FBA66BFEB1701EA063206810B99F
:103EC000FEF798FDA060206908B9012000E00020FD
:103ED00060B904F1100000F01DFB38B14FF08050C4
:103EE0003A490860BFF34F8FBFF36F8FFFF7C4FBF2
:103EF000012004B0BDE8F081039818B9FFF7BCFBBE
:103F00000020F6E71FB96846FFF746FC0127FFF7D8
:103F1000B3FBFFF72FFDFFF79DFB94F94400401C16
:103F200010B9002084F8440094F94500401C10B9F1
:103F3000002084F84500FFF79FFB03A9684600F0C6
:103F4000DFF840BB2046FEF73DFBF0B1206838B9F2
:103F5000FFF780FBA06800F067FA8046FFF78CFB54
:103F600004F124000399FFF729FC2046FEF79AFC90
:103F700000F054FB00289BD14FF08050134908609B
:103F8000BFF34F8FBFF36F8F92E72046FEF78AFC97
:103F900000F044FB8CE72046FEF784FC00F03EFB7B
:103FA0002046FEF70FFB002882D0B8F1000F0BD09F
:103FB000FFF750FB2046FEF7DEF906463146A068C3
:103FC000FFF732FCFFF758FB002092E704ED00E01A
:103FD0007CB50446022500203F490880FDF75AFBC6
:103FE000FDF77CFB00220121C820FFF752FD3B4971
:103FF000086000220121C820FFF74BFD3849086006
:1040000036480068002863D00846006800285FD062
:1040100001218020FCF794FE00213248FDF784FA4C
:104020000720012181404209920002F1E022C2F8FA
:10403000001100BF2C48FDF71FFB2B4804606020D7
:10404000294988800020C880088148814FF4407049
:1040500088812448FDF7B0FA01224FF4826121489B
:10406000FDF7A0FA01211F48FDF780FAFCF74AFF8F
:1040700001201949088000211820FFF7F9FC1B498D
:1040800008600846006808B9002522E01248008848
:104090004FF6FF7101EA40000F490880002001211E
:1040A00003464FF48272CDE9001011A1134800F0CD
:1040B00057F8012801D0002507E0074800884FF68F
:1040C000FF7101EA400004490880FDF72FFB00E082
:1040D000002528467CBD0000280000203800002074
:1040E00034000020008003400C0100202C00002040
:1040F00073656E6455617274000000003D370008FE
:1041000070B506460C46FFF7A5FA134802687068BA
:10411000131A2068401C08B9002519E00F493068BF
:104120000968884206D07068904203D801250020B3
:1041300020600DE02068984207D92068C01A2060EE
:104140003046FFF729FB002502E000202060012512
:10415000FFF792FA284670BDA0000020B4000020AE
:104160002DE9FF4F85B0804689461746DDE912AB41
:10417000B800FEF7D7FB064656B15420FEF7D2FB37
:1041800004460CB1266304E03046FFF785FA00E0F0
:1041900000247CB10020CDE900ABCDE902403A46D5
:1041A00049464046089BFEF748F92046FDF7CAFFFE
:1041B000012501E04FF0FF35284609B0BDE8F08F3A
:1041C0000549096809B9012005E00449096809B9E8
:1041D000022000E000207047A8000020C800002056
:1041E0000149086870470000A00000202DE9F04157
:1041F00000275748006800287ED156480068451CB3
:10420000544805608DB95448D0F800805348006880
:10421000514908605148C0F8008051480068401C6E
:104220004F490860FEF7D6FA00BF4E480068854245
:1042300076D300BF48480068006808B9012000E054
:10424000002020B14FF0FF304649086067E0424847
:104250000068C068C4686668B54202D2414806601A
:104260005DE06069D4E902128A60D4E902214A6003
:10427000211D42688A4201D1E168416000226261E9
:104280000168491E0160A06A98B1A06AD4E90712CA
:104290008A60D4E907214A6004F1180142688A4221
:1042A00001D1216A41600022A2620168491E0160B9
:1042B00000BF94F82C10012088402B49096808435E
:1042C00029490860E16A01EB8101284A02EB81017A
:1042D0004868A0608268E260211D82685160816048
:1042E000E16A01EB8101214A02EB81026261E16A2C
:1042F00001EB81011D4A00E022E052F82110491C27
:10430000E26A02EB8202194B43F822101849E06A74
:104310000968C96A88428DD301278BE700E000BF96
:1043200013480068C06A00EB8000104951F8200073
:10433000012800D901270F48006800B1012704E0D7
:104340000D480068401C0C4908603846BDE8F08103
:10435000C8000020A0000020900000209400002051
:10436000B4000020BC000020A4000020280200208F
:104370008C000020B0000020AC00002070B5054685
:104380002C460026002D48D0A06C401EA064616C15
:10439000E06A884241D0A06C00283ED1201DFEF783
:1043A000B1FD40B994F82C10012088401C490968DF
:1043B00081431B480160606CE062E06AC0F1050067
:1043C000A06194F82C100120884015490968084321
:1043D00013490860E16A01EB8101124A02EB810195
:1043E0004868A0608268E260211D82685160816037
:1043F000E16A01EB81010B4A02EB81026261E16A31
:1044000001EB8101074A52F82110491CE26A02EBD4
:104410008202044B43F822100126304670BD000092
:10442000A40000202802002070B505462C46002676
:10443000002D67D03449E06A0968C96A88425AD2B7
:10444000A06900F0004028B92F480068C06AC0F198
:104450000500A061E16A01EB81012C4A02EB8101B8
:104460006069884201D1012000E00020E0B3201DF6
:10447000FEF748FD40B994F82C10012088402449EB
:1044800009688143224801601F480068C06AE062F1
:1044900094F82C10012088401D49096808431C49E4
:1044A0000860E16A01EB8101184A02EB810148686A
:1044B000A0608268E260211D826851608160E16ACB
:1044C00001EB8101114A02EB81026261E16A01EBB9
:1044D00081010E4A52F82110491CE26A02EB820265
:1044E0000A4B43F8221004E0FFE707480068C06A5F
:1044F000E062012606E00449606C0968C96A8842E6
:1045000000D20126304670BD8C0000202802002019
:10451000A400002070B50346D868C168886AD1E954
:104520000745A560D1E90754656001F118044568A5
:10453000A54201D10C6A446000258D620468641EA6
:1045400004603048006800283DD14869D1E902453F
:10455000A560D1E9025465600C1D4568A54201D1F2
:10456000CC68446000254D610468641E046091F8C5
:104570002C400120A040244C24682043224C206081
:10458000CC6A04EB8404214D05EB840460688860E8
:104590008568CD600C1D85686C608460CC6A04EB16
:1045A00084041A4D05EB84054D61CC6A04EB840448
:1045B000164D55F82440641CCD6A05EB8505134E55
:1045C00046F8254010E0124C6068C86185680D62AD
:1045D00001F1180485686C6084600D4D8D622C4675
:1045E0002468641C2C6000BF0A4CC86A2468E46A12
:1045F000A04204D901220120074C206000E00022E3
:10460000104670BDC8000020A40000202802002031
:10461000B40200208C000020B000002070B50024FF
:104620000026FFF717F84B480068401E494908600C
:104630000846006800287DD147480068002879D0E6
:104640005BE04648C068C468A06AD4E907128A6083
:10465000D4E907214A6004F1180142688A4201D175
:10466000216A41600022A2620168491E01606069FE
:10467000D4E902128A60D4E902214A60211D42680D
:104680008A4201D1E1684160002262610168491EED
:10469000016094F82C1001208840314909680843D2
:1046A0002F490860E16A01EB81012E4A02EB81018A
:1046B0004868A0608268E260211D82685160816064
:1046C000E16A01EB8101274A02EB81026261E16A42
:1046D00001EB8101234A52F82110491CE26A02EBE6
:1046E0008202204B43F822101F49E06A0968C96A18
:1046F000884202D301201D4908601848006808B9A3
:10470000012000E0002000289BD00CB1FEF762F8E9
:104710001748056865B100BFFFF768FD10B10120BB
:10472000124908606D1E002DF6D100201049086066
:104730000E4800E009E0006838B1012630070D4955
:104740000860BFF34F8FBFF36F8FFEF795FF3046C2
:1047500070BD0000C80000209C000020B4020020B2
:10476000A4000020280200208C000020B0000020BF
:10477000AC00002004ED00E008B515E003E09DF872
:104780000000FEF78FFA4FF0FF32694607480068D5
:10479000FFF704FB0128F2D04FF080500449086075
:1047A000BFF34F8FBFF36F8FE8E700006400002076
:1047B00004ED00E02DE9FC4705460E4617469846F5
:1047C000DDF828902820FEF7ADF8044654B100200B
:1047D00084F8240043463A4631462846CDE9009401
:1047E000FDF773FE2046BDE8FC8700001CB50024E1
:1047F000FDF71AFD0848006858B108480121002358
:104800004FF48272CDE9001005A10748FFF7A8FC1C
:10481000044620461CBD0000D4000020D800002023
:10482000546D7220537663008B2800082DE9FE43F7
:1048300005460C4616461F46DDF828804FF0000955
:104840001448006810B3009401960295062C15DAFE
:10485000FFF7B6FC022808D10023424669460D48FE
:104860000068FFF78DF9814610E000231A4669467B
:1048700008480068FFF784F9814607E000233A46BC
:10488000694604480068FFF707FA81464846BDE8D4
:10489000FE830000D40000202DE9C04130B4DFF8D1
:1048A000A0C23CEA111418BF3CEA131400F0EC80DB
:1048B00081EA03051CEA111444EAD57418BF1CEA06
:1048C000131500F0C780A4EB05044FF0004545EA3E
:1048D000C12145EAC32341EA505143EA525304F14E
:1048E0007F74994204F500344FEAC0204FEAC22297
:1048F00008BF904200F09C804FEA13650FF240160B
:10490000765D4FEA134506FB05F7C7F1807706FB96
:1049100007F74FEAD737A7FB03687642C8F5803818
:10492000A7FB06CE38BFA8F1010807FB08E64FF049
:10493000000EA6FB028CE6FB03CEDCF1000CCEF1F0
:10494000004E38BFAEF1010EA6FB0C584FF0000729
:104950004FF00005E6FB0E87A1FB08C6A0FB07CEC3
:1049600016EB0E0645F10005E1FB076515F1E04E7B
:104970007EBFA4F580345FEA46066D4116F18007DC
:1049800045F100054FEA17274FEA066647EA056733
:10499000A6F1DE46B6F1805F4FEA15251FD93846ED
:1049A00024F0010C05EBC471BCF1FE6F01EB0C119E
:1049B00002D8F0BCBDE8008124425CBF01F5801E36
:1049C0009EEAC47F02D4F0BCBDE80081244238D402
:1049D000F0BCA1F1C041BDE8004100F0EDB94FEAE3
:1049E000D22242EA43524FEAD323A7FB02864FEA80
:1049F000D02040EA415007FB03661EEA0E0F4FEA43
:104A0000D12105FB026658BFA6EB0056B6EB005657
:104A10004FEA520E4EEAC37E18EB0E0E56EB530EC3
:104A2000BDD518EB02085E417F1C55F10005B6E7C5
:104A30004FF480154FF000074FF000064FF00008CC
:104A4000ADE7F0BC4FF0000001F1C04101F00041C2
:104A5000BDE8008111EA0C1F0CEA131500D00CE030
:104A600013EA0C1F00F025804FF00000F0BC81EA33
:104A7000030101F00041BDE80081F0BCBDE8004148
:104A800081EA030100F098B9F0BCBDE8004170B5BF
:104A900000F044F9097EFC3E00F007B881EA03010A
:104AA0004FF0000001F00041704781EA030100F07F
:104AB00083B9F0BCBDE800414FF0000021497047C8
:104AC000FFFDFBF9F7F5F4F2F0EEEDEBE9E8E6E4D3
:104AD000E3E1E0DEDDDBDAD8D7D5D4D3D1D0CFCD5A
:104AE000CCCBCAC8C7C6C5C4C2C1C0BFBEBDBCBB93
:104AF000BAB9B8B7B6B5B4B3B2B1B0AFAEADACAB8E
:104B0000AAA9A8A8A7A6A5A4A3A3A2A1A09F9F9E67
:104B10009D9C9C9B9A999998979796959594939319
:104B2000929191908F8F8E8E8D8C8C8B8B8A8989B0
:104B30008888878786858584848383828281818033
:104B40000000FF070000F87F4FEA1153A3F58063D0
:104B5000D3F11E03A8BFD3F1200C08DB4FF00042B5
:104B600042EAC12252EA505232FA03F07047094237
:104B70000BD4102BC4BF0020704703F5787CBCF128
:104B8000FF3F05D04FF0FF3070474FF000007047F7
:104B900070B500F0C3F800BF499224800020704730
:104BA000F0E7B0FA80F310FA03F10AD0C3F11D0365
:104BB00003F580634FEA41504FEA035202EBD121E3
:104BC00070474FF000007047DFF848C170B51CEA2D
:104BD000111E1EBF1CEA13159EEA0C0F95EA0C0F5E
:104BE00000F06F8081EA030423EA4C134EEAD47E7E
:104BF00021EA4C1141F4801143F48013AE44A1FB2F
:104C0000024CA0FB0365AEF17F7E361955EB0C0517
:104C1000A1FB034C4CF10003A0FB021C16EB0C069D
:104C2000654153F10003094218BF46F0010613F431
:104C3000007F0BD14FEA03314FEA0530340341EADC
:104C4000155140EA16506FF003020AE04FEAC32103
:104C50004FEAC520F40241EA555140EA56506FF040
:104C6000020202EB2E4201EB025585EACE710AD018
:104C70005FEA440C18BF24F0004450F1000041F1F9
:104C8000000120EAD47040F2FE7C624500D270BD83
:104C9000A84214BF4FF080444FF04044002E08BF9C
:104CA0000024BEF1806FA8BFA1F1C041BDE87040F3
:104CB00080F282804FF0000001F1C04101F000411C
:104CC00070479EEA0C0F0CEA131518BF95EA0C0FFB
:104CD00006D04FF0000081EA030E0EF0004170BDD7
:104CE00000F01CF88900013E00F007B800F009B898
:104CF0004FEA430C5FEA5C5C08D081EA030100F0F4
:104D00005BB84FEA410C5FEA5C5CF6D14FF0000003
:104D1000014970470000FF070000F87F0EF1020E06
:104D20002EF0030E5EF8046B364205D4012A43EBE5
:104D3000030515F5001F12D8012841EB010C1CF5E5
:104D4000001F0CD80ED14FEAD17C15F5001F0CEBDB
:104D50004C0C0CF1020C08BF4CEBD37C04E04FF080
:104D6000080C01E04FEAD37C0CEB4C0526FA05F663
:104D700006F00706B6F1040C06D20EEB860CBDE871
:104D800070404CF0010C6047DFE80CF0090B0202A8
:104D90004FF000414FF00000A1F5002170BD194611
:104DA0001046012851EB010418BFD4F5001484BF4C
:104DB000002001F0004170BD0808A0F500114FEA85
:104DC000310170472DE9F04101F5801CBCF5001F51
:104DD000C0F2C3804FEA115C21EA0C510CF1FD0CCA
:104DE00041F480115FEA5C0C0CF5C07C01D34000FB
:104DF00049413DA4890241EA905187028E0E0A0C76
:104E0000A45D04FB04F602FB06F6C6F14046A4FBD3
:104E10000662F60D46EA422606FB06F4A4FB0123D1
:104E20005242C3F1404338BF5B1EA6FB024200243E
:104E3000E6FB0324D20B42EA4446A6FB0623A1FB71
:104E400002E2A3FB07E4A4184FF0000252F10002B3
:104E5000E3FB01426442C2F1404E38BFAEF1010EA5
:104E6000A6FB04234FF00002E6FB0E32A2FB034632
:104E70004FF00004B61954F10004E2FB0264A1FBF8
:104E800006E6A4FB07E816EB08064FF0000858F109
:104E90000008E4FB01687642C8F1405838BFA8F129
:104EA0000108A2FB06E4A3FB08E52D194FF000045E
:104EB00054F10004E2FB0854A1FB05E6A7FB04E85B
:104EC00018EB06084FF0000656F10006E1FB0486D9
:104ED00018F1200556F10006A809A8F11B08B10930
:104EE00008F03F08B8F10A0F40EA86601CD901EBD0
:104EF0000C51BDE8F08100BFFCF5EEE8E2DDD8D34F
:104F0000CFCBC7C3C0BDB9B6B4B1AEACA9A7A5A33A
:104F1000A19F9D9B9A9896959392908F8D8C8B894B
:104F20008887868584838281A0FB006800FB01F26C
:104F300008EB4208B8EB872807D5341858EB010472
:104F4000D5D5401C51F10001D1E7341A78EB0104AA
:104F5000CDD4401E71F10001C9E75FEA4C0C5FEA55
:104F60009C5C0DD105D34FF0000001F00041BDE87D
:104F7000F081BDE8F04170B5FFF7D0FE6DDBFFBEFC
:104F8000BDE8F0414FF00000004970470000F87F95
:104F9000B04F00080000002000010000FC000008E5
:104FA000B050000800010020784C000018010008F3
:104FB00009000000000000000000000000000000E8
:104FC00000000000000000000000000000000000E1
:104FD00000000000000000000000000000000000D1
:104FE00000000000000000000000000000000000C1
:104FF00000000000000000000000000000000000B1
:1050000000000000000000000000000000000000A0
:105010000000000000000000000000000000000090
:105020000000000000000000000000000000000080
:105030000000000000000000000000000000000070
:105040000000000000000000000000000000000060
:105050000000000000000000000000000000000050
:105060000000000000000000000000000000000040
:10507000000000000400000000000000000000002C
:105080000000000000000000000000000000000020
:10509000AAAAAAAA00000000000000000000000068
:1050A00000000000F84300000000000000127A0039
:04000005080001F5F9
:00000001FF
